{
  "contractName": "Artplace",
  "abi": [
    {
      "inputs": [],
      "payable": false,
      "stateMutability": "nonpayable",
      "type": "constructor"
    },
    {
      "anonymous": false,
      "inputs": [
        {
          "indexed": true,
          "internalType": "uint256",
          "name": "id",
          "type": "uint256"
        },
        {
          "indexed": false,
          "internalType": "string",
          "name": "Artistname",
          "type": "string"
        },
        {
          "indexed": false,
          "internalType": "string",
          "name": "Artname",
          "type": "string"
        },
        {
          "indexed": false,
          "internalType": "uint256",
          "name": "price",
          "type": "uint256"
        },
        {
          "indexed": false,
          "internalType": "uint256",
          "name": "width",
          "type": "uint256"
        },
        {
          "indexed": false,
          "internalType": "uint256",
          "name": "height",
          "type": "uint256"
        },
        {
          "indexed": false,
          "internalType": "string",
          "name": "Description",
          "type": "string"
        },
        {
          "indexed": true,
          "internalType": "address payable",
          "name": "owner",
          "type": "address"
        },
        {
          "indexed": true,
          "internalType": "bool",
          "name": "purchased",
          "type": "bool"
        }
      ],
      "name": "ArtworkPurchased",
      "type": "event"
    },
    {
      "anonymous": false,
      "inputs": [
        {
          "indexed": true,
          "internalType": "uint256",
          "name": "id",
          "type": "uint256"
        },
        {
          "indexed": false,
          "internalType": "string",
          "name": "Artistname",
          "type": "string"
        },
        {
          "indexed": false,
          "internalType": "string",
          "name": "Artname",
          "type": "string"
        },
        {
          "indexed": false,
          "internalType": "uint256",
          "name": "price",
          "type": "uint256"
        },
        {
          "indexed": false,
          "internalType": "uint256",
          "name": "width",
          "type": "uint256"
        },
        {
          "indexed": false,
          "internalType": "uint256",
          "name": "height",
          "type": "uint256"
        },
        {
          "indexed": false,
          "internalType": "string",
          "name": "Description",
          "type": "string"
        },
        {
          "indexed": true,
          "internalType": "address payable",
          "name": "owner",
          "type": "address"
        },
        {
          "indexed": true,
          "internalType": "bool",
          "name": "purchased",
          "type": "bool"
        }
      ],
      "name": "Artworkcreated",
      "type": "event"
    },
    {
      "anonymous": false,
      "inputs": [
        {
          "indexed": true,
          "internalType": "uint256",
          "name": "id",
          "type": "uint256"
        },
        {
          "indexed": false,
          "internalType": "string",
          "name": "Artistname",
          "type": "string"
        },
        {
          "indexed": false,
          "internalType": "string",
          "name": "Artname",
          "type": "string"
        },
        {
          "indexed": false,
          "internalType": "uint256",
          "name": "price",
          "type": "uint256"
        },
        {
          "indexed": false,
          "internalType": "uint256",
          "name": "width",
          "type": "uint256"
        },
        {
          "indexed": false,
          "internalType": "uint256",
          "name": "height",
          "type": "uint256"
        },
        {
          "indexed": false,
          "internalType": "string",
          "name": "Description",
          "type": "string"
        },
        {
          "indexed": true,
          "internalType": "address payable",
          "name": "owner",
          "type": "address"
        },
        {
          "indexed": true,
          "internalType": "bool",
          "name": "purchased",
          "type": "bool"
        }
      ],
      "name": "madeitavailable",
      "type": "event"
    },
    {
      "anonymous": false,
      "inputs": [
        {
          "indexed": true,
          "internalType": "uint256",
          "name": "id",
          "type": "uint256"
        },
        {
          "indexed": false,
          "internalType": "string",
          "name": "Artistname",
          "type": "string"
        },
        {
          "indexed": false,
          "internalType": "string",
          "name": "Artname",
          "type": "string"
        },
        {
          "indexed": false,
          "internalType": "uint256",
          "name": "price",
          "type": "uint256"
        },
        {
          "indexed": false,
          "internalType": "uint256",
          "name": "width",
          "type": "uint256"
        },
        {
          "indexed": false,
          "internalType": "uint256",
          "name": "height",
          "type": "uint256"
        },
        {
          "indexed": false,
          "internalType": "string",
          "name": "Description",
          "type": "string"
        },
        {
          "indexed": true,
          "internalType": "address payable",
          "name": "owner",
          "type": "address"
        },
        {
          "indexed": true,
          "internalType": "bool",
          "name": "purchased",
          "type": "bool"
        }
      ],
      "name": "madeitunavailable",
      "type": "event"
    },
    {
      "constant": true,
      "inputs": [],
      "name": "ArtworkCount",
      "outputs": [
        {
          "internalType": "uint256",
          "name": "",
          "type": "uint256"
        }
      ],
      "payable": false,
      "stateMutability": "view",
      "type": "function"
    },
    {
      "constant": true,
      "inputs": [
        {
          "internalType": "uint256",
          "name": "",
          "type": "uint256"
        }
      ],
      "name": "Artworks",
      "outputs": [
        {
          "internalType": "uint256",
          "name": "id",
          "type": "uint256"
        },
        {
          "internalType": "string",
          "name": "Artistname",
          "type": "string"
        },
        {
          "internalType": "string",
          "name": "Artname",
          "type": "string"
        },
        {
          "internalType": "uint256",
          "name": "price",
          "type": "uint256"
        },
        {
          "internalType": "uint256",
          "name": "width",
          "type": "uint256"
        },
        {
          "internalType": "uint256",
          "name": "height",
          "type": "uint256"
        },
        {
          "internalType": "string",
          "name": "Description",
          "type": "string"
        },
        {
          "internalType": "address payable",
          "name": "owner",
          "type": "address"
        },
        {
          "internalType": "bool",
          "name": "purchased",
          "type": "bool"
        }
      ],
      "payable": false,
      "stateMutability": "view",
      "type": "function"
    },
    {
      "constant": true,
      "inputs": [],
      "name": "name",
      "outputs": [
        {
          "internalType": "string",
          "name": "",
          "type": "string"
        }
      ],
      "payable": false,
      "stateMutability": "view",
      "type": "function"
    },
    {
      "constant": false,
      "inputs": [
        {
          "internalType": "string",
          "name": "_Artistname",
          "type": "string"
        },
        {
          "internalType": "string",
          "name": "_Artname",
          "type": "string"
        },
        {
          "internalType": "uint256",
          "name": "_price",
          "type": "uint256"
        },
        {
          "internalType": "uint256",
          "name": "_width",
          "type": "uint256"
        },
        {
          "internalType": "uint256",
          "name": "_height",
          "type": "uint256"
        },
        {
          "internalType": "string",
          "name": "_Description",
          "type": "string"
        }
      ],
      "name": "createArtwork",
      "outputs": [],
      "payable": false,
      "stateMutability": "nonpayable",
      "type": "function"
    },
    {
      "constant": false,
      "inputs": [
        {
          "internalType": "uint256",
          "name": "_id",
          "type": "uint256"
        }
      ],
      "name": "purchaseArtwork",
      "outputs": [],
      "payable": true,
      "stateMutability": "payable",
      "type": "function"
    },
    {
      "constant": false,
      "inputs": [
        {
          "internalType": "uint256",
          "name": "_id",
          "type": "uint256"
        }
      ],
      "name": "Sellit",
      "outputs": [],
      "payable": false,
      "stateMutability": "nonpayable",
      "type": "function"
    },
    {
      "constant": false,
      "inputs": [
        {
          "internalType": "uint256",
          "name": "_id",
          "type": "uint256"
        }
      ],
      "name": "DontSellit",
      "outputs": [],
      "payable": false,
      "stateMutability": "nonpayable",
      "type": "function"
    }
  ],
  "bytecode": "0x608060405260006001553480156200001657600080fd5b506040518060400160405280601481526020017f417274207573696e6720426c6f636b636861696e00000000000000000000000081525060009080519060200190620000649291906200006b565b506200011a565b828054600181600116156101000203166002900490600052602060002090601f016020900481019282601f10620000ae57805160ff1916838001178555620000df565b82800160010185558215620000df579182015b82811115620000de578251825591602001919060010190620000c1565b5b509050620000ee9190620000f2565b5090565b6200011791905b8082111562000113576000816000905550600101620000f9565b5090565b90565b611f98806200012a6000396000f3fe6080604052600436106100705760003560e01c8063657026df1161004e578063657026df14610319578063659052a814610354578063749126541461038f5780639a3f1842146103ba57610070565b806306fdde03146100755780631287fb92146101055780631e5521b714610133575b600080fd5b34801561008157600080fd5b5061008a6105ce565b6040518080602001828103825283818151815260200191508051906020019080838360005b838110156100ca5780820151818401526020810190506100af565b50505050905090810190601f1680156100f75780820380516001836020036101000a031916815260200191505b509250505060405180910390f35b6101316004803603602081101561011b57600080fd5b810190808035906020019092919050505061066c565b005b34801561013f57600080fd5b5061016c6004803603602081101561015657600080fd5b8101908080359060200190929190505050610d02565b604051808a81526020018060200180602001898152602001888152602001878152602001806020018673ffffffffffffffffffffffffffffffffffffffff1673ffffffffffffffffffffffffffffffffffffffff1681526020018515151515815260200184810384528c818151815260200191508051906020019080838360005b838110156102085780820151818401526020810190506101ed565b50505050905090810190601f1680156102355780820380516001836020036101000a031916815260200191505b5084810383528b818151815260200191508051906020019080838360005b8381101561026e578082015181840152602081019050610253565b50505050905090810190601f16801561029b5780820380516001836020036101000a031916815260200191505b50848103825287818151815260200191508051906020019080838360005b838110156102d45780820151818401526020810190506102b9565b50505050905090810190601f1680156103015780820380516001836020036101000a031916815260200191505b509c5050505050505050505050505060405180910390f35b34801561032557600080fd5b506103526004803603602081101561033c57600080fd5b8101908080359060200190929190505050610f45565b005b34801561036057600080fd5b5061038d6004803603602081101561037757600080fd5b8101908080359060200190929190505050611517565b005b34801561039b57600080fd5b506103a4611ae3565b6040518082815260200191505060405180910390f35b3480156103c657600080fd5b506105cc600480360360c08110156103dd57600080fd5b81019080803590602001906401000000008111156103fa57600080fd5b82018360208201111561040c57600080fd5b8035906020019184600183028401116401000000008311171561042e57600080fd5b91908080601f016020809104026020016040519081016040528093929190818152602001838380828437600081840152601f19601f8201169050808301925050505050505091929192908035906020019064010000000081111561049157600080fd5b8201836020820111156104a357600080fd5b803590602001918460018302840111640100000000831117156104c557600080fd5b91908080601f016020809104026020016040519081016040528093929190818152602001838380828437600081840152601f19601f8201169050808301925050505050505091929192908035906020019092919080359060200190929190803590602001909291908035906020019064010000000081111561054657600080fd5b82018360208201111561055857600080fd5b8035906020019184600183028401116401000000008311171561057a57600080fd5b91908080601f016020809104026020016040519081016040528093929190818152602001838380828437600081840152601f19601f820116905080830192505050505050509192919290505050611ae9565b005b60008054600181600116156101000203166002900480601f0160208091040260200160405190810160405280929190818152602001828054600181600116156101000203166002900480156106645780601f1061063957610100808354040283529160200191610664565b820191906000526020600020905b81548152906001019060200180831161064757829003601f168201915b505050505081565b610674611e5a565b600260008381526020019081526020016000206040518061012001604052908160008201548152602001600182018054600181600116156101000203166002900480601f0160208091040260200160405190810160405280929190818152602001828054600181600116156101000203166002900480156107365780601f1061070b57610100808354040283529160200191610736565b820191906000526020600020905b81548152906001019060200180831161071957829003601f168201915b50505050508152602001600282018054600181600116156101000203166002900480601f0160208091040260200160405190810160405280929190818152602001828054600181600116156101000203166002900480156107d85780601f106107ad576101008083540402835291602001916107d8565b820191906000526020600020905b8154815290600101906020018083116107bb57829003601f168201915b50505050508152602001600382015481526020016004820154815260200160058201548152602001600682018054600181600116156101000203166002900480601f0160208091040260200160405190810160405280929190818152602001828054600181600116156101000203166002900480156108985780601f1061086d57610100808354040283529160200191610898565b820191906000526020600020905b81548152906001019060200180831161087b57829003601f168201915b505050505081526020016007820160009054906101000a900473ffffffffffffffffffffffffffffffffffffffff1673ffffffffffffffffffffffffffffffffffffffff1673ffffffffffffffffffffffffffffffffffffffff1681526020016007820160149054906101000a900460ff161515151581525050905060008160e0015190503373ffffffffffffffffffffffffffffffffffffffff168173ffffffffffffffffffffffffffffffffffffffff16141561095657600080fd5b600082600001511180156109705750600154826000015111155b61097957600080fd5b8161010001511561098957600080fd5b816060015134101561099a57600080fd5b816101000151156109aa57600080fd5b338260e0019073ffffffffffffffffffffffffffffffffffffffff16908173ffffffffffffffffffffffffffffffffffffffff16815250506001826101000190151590811515815250508160026000858152602001908152602001600020600082015181600001556020820151816001019080519060200190610a2e929190611ebe565b506040820151816002019080519060200190610a4b929190611ebe565b50606082015181600301556080820151816004015560a0820151816005015560c0820151816006019080519060200190610a86929190611ebe565b5060e08201518160070160006101000a81548173ffffffffffffffffffffffffffffffffffffffff021916908373ffffffffffffffffffffffffffffffffffffffff1602179055506101008201518160070160146101000a81548160ff0219169083151502179055509050508073ffffffffffffffffffffffffffffffffffffffff166108fc349081150290604051600060405180830381858888f19350505050158015610b38573d6000803e3d6000fd5b50600115153373ffffffffffffffffffffffffffffffffffffffff166001547f959c75f431b776b663f5840a6069ab2875ce097d17b57f29620d27014397a7e585602001518660400151876060015188608001518960a001518a60c001516040518080602001806020018781526020018681526020018581526020018060200184810384528a818151815260200191508051906020019080838360005b83811015610bf0578082015181840152602081019050610bd5565b50505050905090810190601f168015610c1d5780820380516001836020036101000a031916815260200191505b50848103835289818151815260200191508051906020019080838360005b83811015610c56578082015181840152602081019050610c3b565b50505050905090810190601f168015610c835780820380516001836020036101000a031916815260200191505b50848103825285818151815260200191508051906020019080838360005b83811015610cbc578082015181840152602081019050610ca1565b50505050905090810190601f168015610ce95780820380516001836020036101000a031916815260200191505b50995050505050505050505060405180910390a4505050565b6002602052806000526040600020600091509050806000015490806001018054600181600116156101000203166002900480601f016020809104026020016040519081016040528092919081815260200182805460018160011615610100020316600290048015610db45780601f10610d8957610100808354040283529160200191610db4565b820191906000526020600020905b815481529060010190602001808311610d9757829003601f168201915b505050505090806002018054600181600116156101000203166002900480601f016020809104026020016040519081016040528092919081815260200182805460018160011615610100020316600290048015610e525780601f10610e2757610100808354040283529160200191610e52565b820191906000526020600020905b815481529060010190602001808311610e3557829003601f168201915b505050505090806003015490806004015490806005015490806006018054600181600116156101000203166002900480601f016020809104026020016040519081016040528092919081815260200182805460018160011615610100020316600290048015610f025780601f10610ed757610100808354040283529160200191610f02565b820191906000526020600020905b815481529060010190602001808311610ee557829003601f168201915b5050505050908060070160009054906101000a900473ffffffffffffffffffffffffffffffffffffffff16908060070160149054906101000a900460ff16905089565b610f4d611e5a565b600260008381526020019081526020016000206040518061012001604052908160008201548152602001600182018054600181600116156101000203166002900480601f01602080910402602001604051908101604052809291908181526020018280546001816001161561010002031660029004801561100f5780601f10610fe45761010080835404028352916020019161100f565b820191906000526020600020905b815481529060010190602001808311610ff257829003601f168201915b50505050508152602001600282018054600181600116156101000203166002900480601f0160208091040260200160405190810160405280929190818152602001828054600181600116156101000203166002900480156110b15780601f10611086576101008083540402835291602001916110b1565b820191906000526020600020905b81548152906001019060200180831161109457829003601f168201915b50505050508152602001600382015481526020016004820154815260200160058201548152602001600682018054600181600116156101000203166002900480601f0160208091040260200160405190810160405280929190818152602001828054600181600116156101000203166002900480156111715780601f1061114657610100808354040283529160200191611171565b820191906000526020600020905b81548152906001019060200180831161115457829003601f168201915b505050505081526020016007820160009054906101000a900473ffffffffffffffffffffffffffffffffffffffff1673ffffffffffffffffffffffffffffffffffffffff1673ffffffffffffffffffffffffffffffffffffffff1681526020016007820160149054906101000a900460ff16151515158152505090506001151581610100015115151461120357600080fd5b3373ffffffffffffffffffffffffffffffffffffffff168160e0015173ffffffffffffffffffffffffffffffffffffffff161461123f57600080fd5b600081610100019015159081151581525050806002600084815260200190815260200160002060008201518160000155602082015181600101908051906020019061128b929190611ebe565b5060408201518160020190805190602001906112a8929190611ebe565b50606082015181600301556080820151816004015560a0820151816005015560c08201518160060190805190602001906112e3929190611ebe565b5060e08201518160070160006101000a81548173ffffffffffffffffffffffffffffffffffffffff021916908373ffffffffffffffffffffffffffffffffffffffff1602179055506101008201518160070160146101000a81548160ff021916908315150217905550905050600015153373ffffffffffffffffffffffffffffffffffffffff166001547fe55c8104b949fee706c13f682db6382489608b60d28396cd9282f05e56795b5184602001518560400151866060015187608001518860a001518960c001516040518080602001806020018781526020018681526020018581526020018060200184810384528a818151815260200191508051906020019080838360005b838110156114065780820151818401526020810190506113eb565b50505050905090810190601f1680156114335780820380516001836020036101000a031916815260200191505b50848103835289818151815260200191508051906020019080838360005b8381101561146c578082015181840152602081019050611451565b50505050905090810190601f1680156114995780820380516001836020036101000a031916815260200191505b50848103825285818151815260200191508051906020019080838360005b838110156114d25780820151818401526020810190506114b7565b50505050905090810190601f1680156114ff5780820380516001836020036101000a031916815260200191505b50995050505050505050505060405180910390a45050565b61151f611e5a565b600260008381526020019081526020016000206040518061012001604052908160008201548152602001600182018054600181600116156101000203166002900480601f0160208091040260200160405190810160405280929190818152602001828054600181600116156101000203166002900480156115e15780601f106115b6576101008083540402835291602001916115e1565b820191906000526020600020905b8154815290600101906020018083116115c457829003601f168201915b50505050508152602001600282018054600181600116156101000203166002900480601f0160208091040260200160405190810160405280929190818152602001828054600181600116156101000203166002900480156116835780601f1061165857610100808354040283529160200191611683565b820191906000526020600020905b81548152906001019060200180831161166657829003601f168201915b50505050508152602001600382015481526020016004820154815260200160058201548152602001600682018054600181600116156101000203166002900480601f0160208091040260200160405190810160405280929190818152602001828054600181600116156101000203166002900480156117435780601f1061171857610100808354040283529160200191611743565b820191906000526020600020905b81548152906001019060200180831161172657829003601f168201915b505050505081526020016007820160009054906101000a900473ffffffffffffffffffffffffffffffffffffffff1673ffffffffffffffffffffffffffffffffffffffff1673ffffffffffffffffffffffffffffffffffffffff1681526020016007820160149054906101000a900460ff16151515158152505090503373ffffffffffffffffffffffffffffffffffffffff168160e0015173ffffffffffffffffffffffffffffffffffffffff16146117fb57600080fd5b8061010001511561180b57600080fd5b6001816101000190151590811515815250508060026000848152602001908152602001600020600082015181600001556020820151816001019080519060200190611857929190611ebe565b506040820151816002019080519060200190611874929190611ebe565b50606082015181600301556080820151816004015560a0820151816005015560c08201518160060190805190602001906118af929190611ebe565b5060e08201518160070160006101000a81548173ffffffffffffffffffffffffffffffffffffffff021916908373ffffffffffffffffffffffffffffffffffffffff1602179055506101008201518160070160146101000a81548160ff021916908315150217905550905050600115153373ffffffffffffffffffffffffffffffffffffffff166001547f33bee292a490f3a77584e0aba354f35f4f8db8454b187f0cf1a59ef7bffe465d84602001518560400151866060015187608001518860a001518960c001516040518080602001806020018781526020018681526020018581526020018060200184810384528a818151815260200191508051906020019080838360005b838110156119d25780820151818401526020810190506119b7565b50505050905090810190601f1680156119ff5780820380516001836020036101000a031916815260200191505b50848103835289818151815260200191508051906020019080838360005b83811015611a38578082015181840152602081019050611a1d565b50505050905090810190601f168015611a655780820380516001836020036101000a031916815260200191505b50848103825285818151815260200191508051906020019080838360005b83811015611a9e578082015181840152602081019050611a83565b50505050905090810190601f168015611acb5780820380516001836020036101000a031916815260200191505b50995050505050505050505060405180910390a45050565b60015481565b6000865111611af757600080fd5b6000855111611b0557600080fd5b60008411611b1257600080fd5b60008311611b1f57600080fd5b60008211611b2c57600080fd5b6000815111611b3a57600080fd5b60016000815480929190600101919050555060405180610120016040528060015481526020018781526020018681526020018581526020018481526020018381526020018281526020013373ffffffffffffffffffffffffffffffffffffffff16815260200160001515815250600260006001548152602001908152602001600020600082015181600001556020820151816001019080519060200190611be2929190611ebe565b506040820151816002019080519060200190611bff929190611ebe565b50606082015181600301556080820151816004015560a0820151816005015560c0820151816006019080519060200190611c3a929190611ebe565b5060e08201518160070160006101000a81548173ffffffffffffffffffffffffffffffffffffffff021916908373ffffffffffffffffffffffffffffffffffffffff1602179055506101008201518160070160146101000a81548160ff021916908315150217905550905050600015153373ffffffffffffffffffffffffffffffffffffffff166001547ff912339172a3b7eda9cb10ecdef181d10a74fc4411fe5d7e62f550ef3698d8458989898989896040518080602001806020018781526020018681526020018581526020018060200184810384528a818151815260200191508051906020019080838360005b83811015611d45578082015181840152602081019050611d2a565b50505050905090810190601f168015611d725780820380516001836020036101000a031916815260200191505b50848103835289818151815260200191508051906020019080838360005b83811015611dab578082015181840152602081019050611d90565b50505050905090810190601f168015611dd85780820380516001836020036101000a031916815260200191505b50848103825285818151815260200191508051906020019080838360005b83811015611e11578082015181840152602081019050611df6565b50505050905090810190601f168015611e3e5780820380516001836020036101000a031916815260200191505b50995050505050505050505060405180910390a4505050505050565b60405180610120016040528060008152602001606081526020016060815260200160008152602001600081526020016000815260200160608152602001600073ffffffffffffffffffffffffffffffffffffffff1681526020016000151581525090565b828054600181600116156101000203166002900490600052602060002090601f016020900481019282601f10611eff57805160ff1916838001178555611f2d565b82800160010185558215611f2d579182015b82811115611f2c578251825591602001919060010190611f11565b5b509050611f3a9190611f3e565b5090565b611f6091905b80821115611f5c576000816000905550600101611f44565b5090565b9056fea265627a7a723158207281042a747ae7ebaa71a31f8cc05e2a59faf1418cc56cda80cbe129a19f757264736f6c63430005100032",
  "source": "pragma solidity >=0.4.21 <0.7.0;\r\n\r\ncontract Artplace {\r\n    string public name;\r\n    uint public ArtworkCount = 0;\r\n    mapping(uint => Artwork) public Artworks;\r\n\r\n    constructor() public {\r\n        name = \"Art using Blockchain\";\r\n    }\r\n\r\n    struct Artwork {\r\n        uint id;\r\n        string Artistname;\r\n        string Artname;\r\n        uint price;\r\n        uint width;\r\n        uint height;\r\n        string Description;\r\n        address payable owner;\r\n        bool purchased;\r\n    }\r\n    event Artworkcreated (\r\n        uint indexed id,\r\n        string Artistname,\r\n        string Artname,\r\n        uint  price,\r\n        uint  width,\r\n        uint  height,\r\n        string  Description,\r\n        address payable indexed owner,\r\n        bool indexed purchased\r\n    );\r\n    event ArtworkPurchased (\r\n        uint indexed id,\r\n        string Artistname,\r\n        string Artname,\r\n        uint  price,\r\n        uint  width,\r\n        uint  height,\r\n        string Description,\r\n        address payable indexed  owner,\r\n        bool indexed purchased\r\n    );\r\n    event madeitavailable (\r\n        uint indexed id,\r\n        string Artistname,\r\n        string Artname,\r\n        uint  price,\r\n        uint  width,\r\n        uint  height,\r\n        string Description,\r\n        address payable indexed  owner,\r\n        bool indexed purchased\r\n    );\r\n    event madeitunavailable (\r\n        uint indexed id,\r\n        string Artistname,\r\n        string Artname,\r\n        uint  price,\r\n        uint  width,\r\n        uint  height,\r\n        string Description,\r\n        address payable indexed  owner,\r\n        bool indexed purchased\r\n    );\r\n    function createArtwork(string memory _Artistname,string memory _Artname, uint _price, uint _width,uint _height,string memory _Description) public {\r\n    // Require a valid Artist name\r\n    require(bytes(_Artistname).length > 0);\r\n    require(bytes(_Artname).length > 0);// Require a valid Art\r\n    require(_price > 0);// Require a valid price\r\n    require(_width > 0);// Require a valid width\r\n    require(_height > 0);// Require a valid height\r\n    require(bytes(_Description).length > 0);\r\n    ArtworkCount ++;//increase count\r\n    Artworks[ArtworkCount] = Artwork(ArtworkCount, _Artistname, _Artname,_price,_width,_height,_Description, msg.sender, false);\r\n    emit Artworkcreated(ArtworkCount, _Artistname, _Artname,_price,_width,_height,_Description, msg.sender, false);// Trigger an event\r\n}\r\n\r\n    function purchaseArtwork(uint _id) public payable {\r\n        Artwork memory _artwork = Artworks[_id];//fetch the artwork\r\n        address payable _seller = _artwork.owner;//fetch the owner\r\n        require(_seller != msg.sender);//check seller does not buy the product\r\n        require(_artwork.id > 0 && _artwork.id <= ArtworkCount);//check for valid if\r\n        require(!_artwork.purchased);//check that artwork has not been purchased\r\n        require(msg.value >= _artwork.price);//chcek min balance\r\n        require(!_artwork.purchased);\r\n        _artwork.owner = msg.sender;\r\n        _artwork.purchased = true;\r\n        Artworks[_id] = _artwork;\r\n        address(_seller).transfer(msg.value);\r\n        emit ArtworkPurchased(ArtworkCount, _artwork.Artistname,_artwork.Artname, _artwork.price,_artwork.width,_artwork.height,_artwork.Description, msg.sender, true);\r\n    }\r\n    function Sellit(uint _id) public  {\r\n        Artwork memory _artwork1 = Artworks[_id];//fetch the artwork\r\n         require((_artwork1.purchased)==true);\r\n         require(_artwork1.owner == msg.sender);\r\n        _artwork1.purchased = false;\r\n         Artworks[_id] = _artwork1;\r\n        emit madeitavailable(ArtworkCount, _artwork1.Artistname,_artwork1.Artname, _artwork1.price,_artwork1.width,_artwork1.height,_artwork1.Description, msg.sender, false);\r\n    }\r\n    function DontSellit(uint _id) public  {\r\n        Artwork memory _artwork2 = Artworks[_id];//fetch the artwork\r\n        require(_artwork2.owner == msg.sender);\r\n        require(!_artwork2.purchased);//check that artwork has not been purchased\r\n        _artwork2.purchased = true;\r\n         Artworks[_id] = _artwork2;\r\n        emit madeitunavailable(ArtworkCount, _artwork2.Artistname,_artwork2.Artname, _artwork2.price,_artwork2.width,_artwork2.height,_artwork2.Description, msg.sender, true);\r\n    }\r\n    \r\n}",
  "sourcePath": "C:\\Users\\DAVE\\Desktop\\New folder (4)\\INFO-7500-Final-Project\\contracts\\Artplace.sol",
  "compiler": {
    "name": "solc",
    "version": "0.5.16+commit.9c3226ce.Emscripten.clang"
  },
  "schemaVersion": "3.0.23",
  "updatedAt": "2020-04-21T01:46:19.951Z",
  "networkType": "ethereum",
  "devdoc": {
    "methods": {}
  },
  "userdoc": {
    "methods": {}
  }
}