{
  "contractName": "Artplace",
  "abi": [
    {
      "inputs": [],
      "payable": false,
      "stateMutability": "nonpayable",
      "type": "constructor"
    },
    {
      "anonymous": false,
      "inputs": [
        {
          "indexed": true,
          "internalType": "uint256",
          "name": "id",
          "type": "uint256"
        },
        {
          "indexed": false,
          "internalType": "string",
          "name": "Artistname",
          "type": "string"
        },
        {
          "indexed": false,
          "internalType": "string",
          "name": "Artname",
          "type": "string"
        },
        {
          "indexed": false,
          "internalType": "uint256",
          "name": "price",
          "type": "uint256"
        },
        {
          "indexed": false,
          "internalType": "uint256",
          "name": "width",
          "type": "uint256"
        },
        {
          "indexed": false,
          "internalType": "uint256",
          "name": "height",
          "type": "uint256"
        },
        {
          "indexed": false,
          "internalType": "string",
          "name": "Description",
          "type": "string"
        },
        {
          "indexed": true,
          "internalType": "address payable",
          "name": "owner",
          "type": "address"
        },
        {
          "indexed": true,
          "internalType": "bool",
          "name": "purchased",
          "type": "bool"
        }
      ],
      "name": "ArtworkPurchased",
      "type": "event"
    },
    {
      "anonymous": false,
      "inputs": [
        {
          "indexed": true,
          "internalType": "uint256",
          "name": "id",
          "type": "uint256"
        },
        {
          "indexed": false,
          "internalType": "string",
          "name": "Artistname",
          "type": "string"
        },
        {
          "indexed": false,
          "internalType": "string",
          "name": "Artname",
          "type": "string"
        },
        {
          "indexed": false,
          "internalType": "uint256",
          "name": "price",
          "type": "uint256"
        },
        {
          "indexed": false,
          "internalType": "uint256",
          "name": "width",
          "type": "uint256"
        },
        {
          "indexed": false,
          "internalType": "uint256",
          "name": "height",
          "type": "uint256"
        },
        {
          "indexed": false,
          "internalType": "string",
          "name": "Description",
          "type": "string"
        },
        {
          "indexed": true,
          "internalType": "address payable",
          "name": "owner",
          "type": "address"
        },
        {
          "indexed": true,
          "internalType": "bool",
          "name": "purchased",
          "type": "bool"
        }
      ],
      "name": "Artworkcreated",
      "type": "event"
    },
    {
      "constant": true,
      "inputs": [],
      "name": "ArtworkCount",
      "outputs": [
        {
          "internalType": "uint256",
          "name": "",
          "type": "uint256"
        }
      ],
      "payable": false,
      "stateMutability": "view",
      "type": "function"
    },
    {
      "constant": true,
      "inputs": [
        {
          "internalType": "uint256",
          "name": "",
          "type": "uint256"
        }
      ],
      "name": "Artworks",
      "outputs": [
        {
          "internalType": "uint256",
          "name": "id",
          "type": "uint256"
        },
        {
          "internalType": "string",
          "name": "Artistname",
          "type": "string"
        },
        {
          "internalType": "string",
          "name": "Artname",
          "type": "string"
        },
        {
          "internalType": "uint256",
          "name": "price",
          "type": "uint256"
        },
        {
          "internalType": "uint256",
          "name": "width",
          "type": "uint256"
        },
        {
          "internalType": "uint256",
          "name": "height",
          "type": "uint256"
        },
        {
          "internalType": "string",
          "name": "Description",
          "type": "string"
        },
        {
          "internalType": "address payable",
          "name": "owner",
          "type": "address"
        },
        {
          "internalType": "bool",
          "name": "purchased",
          "type": "bool"
        }
      ],
      "payable": false,
      "stateMutability": "view",
      "type": "function"
    },
    {
      "constant": true,
      "inputs": [],
      "name": "name",
      "outputs": [
        {
          "internalType": "string",
          "name": "",
          "type": "string"
        }
      ],
      "payable": false,
      "stateMutability": "view",
      "type": "function"
    },
    {
      "constant": false,
      "inputs": [
        {
          "internalType": "string",
          "name": "_Artistname",
          "type": "string"
        },
        {
          "internalType": "string",
          "name": "_Artname",
          "type": "string"
        },
        {
          "internalType": "uint256",
          "name": "_price",
          "type": "uint256"
        },
        {
          "internalType": "uint256",
          "name": "_width",
          "type": "uint256"
        },
        {
          "internalType": "uint256",
          "name": "_height",
          "type": "uint256"
        },
        {
          "internalType": "string",
          "name": "_Description",
          "type": "string"
        }
      ],
      "name": "createArtwork",
      "outputs": [],
      "payable": false,
      "stateMutability": "nonpayable",
      "type": "function"
    },
    {
      "constant": false,
      "inputs": [
        {
          "internalType": "uint256",
          "name": "_id",
          "type": "uint256"
        }
      ],
      "name": "purchaseArtwork",
      "outputs": [],
      "payable": true,
      "stateMutability": "payable",
      "type": "function"
    }
  ],
  "bytecode": "0x608060405260006001553480156200001657600080fd5b506040518060400160405280601481526020017f417274207573696e6720426c6f636b636861696e00000000000000000000000081525060009080519060200190620000649291906200006b565b506200011a565b828054600181600116156101000203166002900490600052602060002090601f016020900481019282601f10620000ae57805160ff1916838001178555620000df565b82800160010185558215620000df579182015b82811115620000de578251825591602001919060010190620000c1565b5b509050620000ee9190620000f2565b5090565b6200011791905b8082111562000113576000816000905550600101620000f9565b5090565b90565b61135e806200012a6000396000f3fe60806040526004361061004a5760003560e01c806306fdde031461004f5780631287fb92146100df5780631e5521b71461010d57806374912654146102f35780639a3f18421461031e575b600080fd5b34801561005b57600080fd5b50610064610532565b6040518080602001828103825283818151815260200191508051906020019080838360005b838110156100a4578082015181840152602081019050610089565b50505050905090810190601f1680156100d15780820380516001836020036101000a031916815260200191505b509250505060405180910390f35b61010b600480360360208110156100f557600080fd5b81019080803590602001909291905050506105d0565b005b34801561011957600080fd5b506101466004803603602081101561013057600080fd5b8101908080359060200190929190505050610c66565b604051808a81526020018060200180602001898152602001888152602001878152602001806020018673ffffffffffffffffffffffffffffffffffffffff1673ffffffffffffffffffffffffffffffffffffffff1681526020018515151515815260200184810384528c818151815260200191508051906020019080838360005b838110156101e25780820151818401526020810190506101c7565b50505050905090810190601f16801561020f5780820380516001836020036101000a031916815260200191505b5084810383528b818151815260200191508051906020019080838360005b8381101561024857808201518184015260208101905061022d565b50505050905090810190601f1680156102755780820380516001836020036101000a031916815260200191505b50848103825287818151815260200191508051906020019080838360005b838110156102ae578082015181840152602081019050610293565b50505050905090810190601f1680156102db5780820380516001836020036101000a031916815260200191505b509c5050505050505050505050505060405180910390f35b3480156102ff57600080fd5b50610308610ea9565b6040518082815260200191505060405180910390f35b34801561032a57600080fd5b50610530600480360360c081101561034157600080fd5b810190808035906020019064010000000081111561035e57600080fd5b82018360208201111561037057600080fd5b8035906020019184600183028401116401000000008311171561039257600080fd5b91908080601f016020809104026020016040519081016040528093929190818152602001838380828437600081840152601f19601f820116905080830192505050505050509192919290803590602001906401000000008111156103f557600080fd5b82018360208201111561040757600080fd5b8035906020019184600183028401116401000000008311171561042957600080fd5b91908080601f016020809104026020016040519081016040528093929190818152602001838380828437600081840152601f19601f820116905080830192505050505050509192919290803590602001909291908035906020019092919080359060200190929190803590602001906401000000008111156104aa57600080fd5b8201836020820111156104bc57600080fd5b803590602001918460018302840111640100000000831117156104de57600080fd5b91908080601f016020809104026020016040519081016040528093929190818152602001838380828437600081840152601f19601f820116905080830192505050505050509192919290505050610eaf565b005b60008054600181600116156101000203166002900480601f0160208091040260200160405190810160405280929190818152602001828054600181600116156101000203166002900480156105c85780601f1061059d576101008083540402835291602001916105c8565b820191906000526020600020905b8154815290600101906020018083116105ab57829003601f168201915b505050505081565b6105d8611220565b600260008381526020019081526020016000206040518061012001604052908160008201548152602001600182018054600181600116156101000203166002900480601f01602080910402602001604051908101604052809291908181526020018280546001816001161561010002031660029004801561069a5780601f1061066f5761010080835404028352916020019161069a565b820191906000526020600020905b81548152906001019060200180831161067d57829003601f168201915b50505050508152602001600282018054600181600116156101000203166002900480601f01602080910402602001604051908101604052809291908181526020018280546001816001161561010002031660029004801561073c5780601f106107115761010080835404028352916020019161073c565b820191906000526020600020905b81548152906001019060200180831161071f57829003601f168201915b50505050508152602001600382015481526020016004820154815260200160058201548152602001600682018054600181600116156101000203166002900480601f0160208091040260200160405190810160405280929190818152602001828054600181600116156101000203166002900480156107fc5780601f106107d1576101008083540402835291602001916107fc565b820191906000526020600020905b8154815290600101906020018083116107df57829003601f168201915b505050505081526020016007820160009054906101000a900473ffffffffffffffffffffffffffffffffffffffff1673ffffffffffffffffffffffffffffffffffffffff1673ffffffffffffffffffffffffffffffffffffffff1681526020016007820160149054906101000a900460ff161515151581525050905060008160e0015190503373ffffffffffffffffffffffffffffffffffffffff168173ffffffffffffffffffffffffffffffffffffffff1614156108ba57600080fd5b600082600001511180156108d45750600154826000015111155b6108dd57600080fd5b816101000151156108ed57600080fd5b81606001513410156108fe57600080fd5b8161010001511561090e57600080fd5b338260e0019073ffffffffffffffffffffffffffffffffffffffff16908173ffffffffffffffffffffffffffffffffffffffff16815250506001826101000190151590811515815250508160026000858152602001908152602001600020600082015181600001556020820151816001019080519060200190610992929190611284565b5060408201518160020190805190602001906109af929190611284565b50606082015181600301556080820151816004015560a0820151816005015560c08201518160060190805190602001906109ea929190611284565b5060e08201518160070160006101000a81548173ffffffffffffffffffffffffffffffffffffffff021916908373ffffffffffffffffffffffffffffffffffffffff1602179055506101008201518160070160146101000a81548160ff0219169083151502179055509050508073ffffffffffffffffffffffffffffffffffffffff166108fc349081150290604051600060405180830381858888f19350505050158015610a9c573d6000803e3d6000fd5b50600115153373ffffffffffffffffffffffffffffffffffffffff166001547f959c75f431b776b663f5840a6069ab2875ce097d17b57f29620d27014397a7e585602001518660400151876060015188608001518960a001518a60c001516040518080602001806020018781526020018681526020018581526020018060200184810384528a818151815260200191508051906020019080838360005b83811015610b54578082015181840152602081019050610b39565b50505050905090810190601f168015610b815780820380516001836020036101000a031916815260200191505b50848103835289818151815260200191508051906020019080838360005b83811015610bba578082015181840152602081019050610b9f565b50505050905090810190601f168015610be75780820380516001836020036101000a031916815260200191505b50848103825285818151815260200191508051906020019080838360005b83811015610c20578082015181840152602081019050610c05565b50505050905090810190601f168015610c4d5780820380516001836020036101000a031916815260200191505b50995050505050505050505060405180910390a4505050565b6002602052806000526040600020600091509050806000015490806001018054600181600116156101000203166002900480601f016020809104026020016040519081016040528092919081815260200182805460018160011615610100020316600290048015610d185780601f10610ced57610100808354040283529160200191610d18565b820191906000526020600020905b815481529060010190602001808311610cfb57829003601f168201915b505050505090806002018054600181600116156101000203166002900480601f016020809104026020016040519081016040528092919081815260200182805460018160011615610100020316600290048015610db65780601f10610d8b57610100808354040283529160200191610db6565b820191906000526020600020905b815481529060010190602001808311610d9957829003601f168201915b505050505090806003015490806004015490806005015490806006018054600181600116156101000203166002900480601f016020809104026020016040519081016040528092919081815260200182805460018160011615610100020316600290048015610e665780601f10610e3b57610100808354040283529160200191610e66565b820191906000526020600020905b815481529060010190602001808311610e4957829003601f168201915b5050505050908060070160009054906101000a900473ffffffffffffffffffffffffffffffffffffffff16908060070160149054906101000a900460ff16905089565b60015481565b6000865111610ebd57600080fd5b6000855111610ecb57600080fd5b60008411610ed857600080fd5b60008311610ee557600080fd5b60008211610ef257600080fd5b6000815111610f0057600080fd5b60016000815480929190600101919050555060405180610120016040528060015481526020018781526020018681526020018581526020018481526020018381526020018281526020013373ffffffffffffffffffffffffffffffffffffffff16815260200160001515815250600260006001548152602001908152602001600020600082015181600001556020820151816001019080519060200190610fa8929190611284565b506040820151816002019080519060200190610fc5929190611284565b50606082015181600301556080820151816004015560a0820151816005015560c0820151816006019080519060200190611000929190611284565b5060e08201518160070160006101000a81548173ffffffffffffffffffffffffffffffffffffffff021916908373ffffffffffffffffffffffffffffffffffffffff1602179055506101008201518160070160146101000a81548160ff021916908315150217905550905050600015153373ffffffffffffffffffffffffffffffffffffffff166001547ff912339172a3b7eda9cb10ecdef181d10a74fc4411fe5d7e62f550ef3698d8458989898989896040518080602001806020018781526020018681526020018581526020018060200184810384528a818151815260200191508051906020019080838360005b8381101561110b5780820151818401526020810190506110f0565b50505050905090810190601f1680156111385780820380516001836020036101000a031916815260200191505b50848103835289818151815260200191508051906020019080838360005b83811015611171578082015181840152602081019050611156565b50505050905090810190601f16801561119e5780820380516001836020036101000a031916815260200191505b50848103825285818151815260200191508051906020019080838360005b838110156111d75780820151818401526020810190506111bc565b50505050905090810190601f1680156112045780820380516001836020036101000a031916815260200191505b50995050505050505050505060405180910390a4505050505050565b60405180610120016040528060008152602001606081526020016060815260200160008152602001600081526020016000815260200160608152602001600073ffffffffffffffffffffffffffffffffffffffff1681526020016000151581525090565b828054600181600116156101000203166002900490600052602060002090601f016020900481019282601f106112c557805160ff19168380011785556112f3565b828001600101855582156112f3579182015b828111156112f25782518255916020019190600101906112d7565b5b5090506113009190611304565b5090565b61132691905b8082111561132257600081600090555060010161130a565b5090565b9056fea265627a7a723158205be0fff4d17e9a186fe8f0b364f2454b508cd80ba732a688aa3a1c45c66749f564736f6c63430005100032",
  "source": "pragma solidity >=0.4.21 <0.7.0;\r\n\r\ncontract Artplace {\r\n    string public name;\r\n    uint public ArtworkCount = 0;\r\n    mapping(uint => Artwork) public Artworks;\r\n\r\n    constructor() public {\r\n        name = \"Art using Blockchain\";\r\n    }\r\n\r\n    struct Artwork {\r\n        uint id;\r\n        string Artistname;\r\n        string Artname;\r\n        uint price;\r\n        uint width;\r\n        uint height;\r\n        string Description;\r\n        address payable owner;\r\n        bool purchased;\r\n    }\r\n    event Artworkcreated (\r\n        uint indexed id,\r\n        string Artistname,\r\n        string Artname,\r\n        uint  price,\r\n        uint  width,\r\n        uint  height,\r\n        string  Description,\r\n        address payable indexed owner,\r\n        bool indexed purchased\r\n    );\r\n    event ArtworkPurchased (\r\n        uint indexed id,\r\n        string Artistname,\r\n        string Artname,\r\n        uint  price,\r\n        uint  width,\r\n        uint  height,\r\n        string Description,\r\n        address payable indexed  owner,\r\n        bool indexed purchased\r\n    );\r\n    function createArtwork(string memory _Artistname,string memory _Artname, uint _price, uint _width,uint _height,string memory _Description) public {\r\n    // Require a valid Artist name\r\n    require(bytes(_Artistname).length > 0);\r\n    require(bytes(_Artname).length > 0);// Require a valid Art\r\n    require(_price > 0);// Require a valid price\r\n    require(_width > 0);// Require a valid width\r\n    require(_height > 0);// Require a valid height\r\n    require(bytes(_Description).length > 0);\r\n    ArtworkCount ++;//increase count\r\n    Artworks[ArtworkCount] = Artwork(ArtworkCount, _Artistname, _Artname,_price,_width,_height,_Description, msg.sender, false);\r\n    emit Artworkcreated(ArtworkCount, _Artistname, _Artname,_price,_width,_height,_Description, msg.sender, false);// Trigger an event\r\n}\r\n\r\n    function purchaseArtwork(uint _id) public payable {\r\n        Artwork memory _artwork = Artworks[_id];//fetch the artwork\r\n        address payable _seller = _artwork.owner;//fetch the owner\r\n        require(_seller != msg.sender);//check seller does not buy the product\r\n        require(_artwork.id > 0 && _artwork.id <= ArtworkCount);//check for valid if\r\n         require(!_artwork.purchased);//check that artwork has not been purchased\r\n        require(msg.value >= _artwork.price);//chcek min balance\r\n        require(!_artwork.purchased);\r\n        _artwork.owner = msg.sender;\r\n        _artwork.purchased = true;\r\n        Artworks[_id] = _artwork;\r\n        address(_seller).transfer(msg.value);\r\n        emit ArtworkPurchased(ArtworkCount, _artwork.Artistname,_artwork.Artname, _artwork.price,_artwork.width,_artwork.height,_artwork.Description, msg.sender, true);\r\n    }\r\n    \r\n}",
  "sourcePath": "C:\\Users\\DAVE\\Desktop\\New folder (3)\\contracts\\Artplace.sol",
  "compiler": {
    "name": "solc",
    "version": "0.5.16+commit.9c3226ce.Emscripten.clang"
  },
  "schemaVersion": "3.0.23",
  "updatedAt": "2020-04-07T19:54:41.291Z",
  "devdoc": {
    "methods": {}
  },
  "userdoc": {
    "methods": {}
  }
}