{
  "contractName": "Artplace",
  "abi": [
    {
      "inputs": [],
      "payable": false,
      "stateMutability": "nonpayable",
      "type": "constructor"
    },
    {
      "anonymous": false,
      "inputs": [
        {
          "indexed": true,
          "internalType": "uint256",
          "name": "id",
          "type": "uint256"
        },
        {
          "indexed": false,
          "internalType": "string",
          "name": "Artistname",
          "type": "string"
        },
        {
          "indexed": false,
          "internalType": "string",
          "name": "Artname",
          "type": "string"
        },
        {
          "indexed": false,
          "internalType": "uint256",
          "name": "price",
          "type": "uint256"
        },
        {
          "indexed": false,
          "internalType": "uint256",
          "name": "width",
          "type": "uint256"
        },
        {
          "indexed": false,
          "internalType": "uint256",
          "name": "height",
          "type": "uint256"
        },
        {
          "indexed": false,
          "internalType": "string",
          "name": "Description",
          "type": "string"
        },
        {
          "indexed": true,
          "internalType": "address payable",
          "name": "owner",
          "type": "address"
        },
        {
          "indexed": true,
          "internalType": "bool",
          "name": "purchased",
          "type": "bool"
        },
        {
          "indexed": false,
          "internalType": "uint256",
          "name": "timestamp",
          "type": "uint256"
        }
      ],
      "name": "ArtworkPurchased",
      "type": "event"
    },
    {
      "anonymous": false,
      "inputs": [
        {
          "indexed": true,
          "internalType": "uint256",
          "name": "id",
          "type": "uint256"
        },
        {
          "indexed": false,
          "internalType": "string",
          "name": "Artistname",
          "type": "string"
        },
        {
          "indexed": false,
          "internalType": "string",
          "name": "Artname",
          "type": "string"
        },
        {
          "indexed": false,
          "internalType": "uint256",
          "name": "price",
          "type": "uint256"
        },
        {
          "indexed": false,
          "internalType": "uint256",
          "name": "width",
          "type": "uint256"
        },
        {
          "indexed": false,
          "internalType": "uint256",
          "name": "height",
          "type": "uint256"
        },
        {
          "indexed": false,
          "internalType": "string",
          "name": "Description",
          "type": "string"
        },
        {
          "indexed": true,
          "internalType": "address payable",
          "name": "owner",
          "type": "address"
        },
        {
          "indexed": true,
          "internalType": "bool",
          "name": "purchased",
          "type": "bool"
        },
        {
          "indexed": false,
          "internalType": "uint256",
          "name": "timestamp",
          "type": "uint256"
        }
      ],
      "name": "Artworkcreated",
      "type": "event"
    },
    {
      "anonymous": false,
      "inputs": [
        {
          "indexed": false,
          "internalType": "address",
          "name": "winner",
          "type": "address"
        },
        {
          "indexed": false,
          "internalType": "uint256",
          "name": "amount",
          "type": "uint256"
        }
      ],
      "name": "AuctionEnded",
      "type": "event"
    },
    {
      "anonymous": false,
      "inputs": [
        {
          "indexed": false,
          "internalType": "address",
          "name": "bidder",
          "type": "address"
        },
        {
          "indexed": false,
          "internalType": "uint256",
          "name": "amount",
          "type": "uint256"
        },
        {
          "indexed": false,
          "internalType": "address",
          "name": "highestBidder",
          "type": "address"
        },
        {
          "indexed": false,
          "internalType": "uint256",
          "name": "highestBid",
          "type": "uint256"
        }
      ],
      "name": "SomeoneBid",
      "type": "event"
    },
    {
      "anonymous": false,
      "inputs": [
        {
          "indexed": true,
          "internalType": "uint256",
          "name": "id",
          "type": "uint256"
        },
        {
          "indexed": false,
          "internalType": "string",
          "name": "Artistname",
          "type": "string"
        },
        {
          "indexed": false,
          "internalType": "string",
          "name": "Artname",
          "type": "string"
        },
        {
          "indexed": false,
          "internalType": "uint256",
          "name": "price",
          "type": "uint256"
        },
        {
          "indexed": false,
          "internalType": "uint256",
          "name": "width",
          "type": "uint256"
        },
        {
          "indexed": false,
          "internalType": "uint256",
          "name": "height",
          "type": "uint256"
        },
        {
          "indexed": false,
          "internalType": "string",
          "name": "Description",
          "type": "string"
        },
        {
          "indexed": true,
          "internalType": "address payable",
          "name": "owner",
          "type": "address"
        },
        {
          "indexed": true,
          "internalType": "bool",
          "name": "purchased",
          "type": "bool"
        },
        {
          "indexed": false,
          "internalType": "uint256",
          "name": "timestamp",
          "type": "uint256"
        }
      ],
      "name": "madeitavailable",
      "type": "event"
    },
    {
      "anonymous": false,
      "inputs": [
        {
          "indexed": true,
          "internalType": "uint256",
          "name": "id",
          "type": "uint256"
        },
        {
          "indexed": false,
          "internalType": "string",
          "name": "Artistname",
          "type": "string"
        },
        {
          "indexed": false,
          "internalType": "string",
          "name": "Artname",
          "type": "string"
        },
        {
          "indexed": false,
          "internalType": "uint256",
          "name": "price",
          "type": "uint256"
        },
        {
          "indexed": false,
          "internalType": "uint256",
          "name": "width",
          "type": "uint256"
        },
        {
          "indexed": false,
          "internalType": "uint256",
          "name": "height",
          "type": "uint256"
        },
        {
          "indexed": false,
          "internalType": "string",
          "name": "Description",
          "type": "string"
        },
        {
          "indexed": true,
          "internalType": "address payable",
          "name": "owner",
          "type": "address"
        },
        {
          "indexed": true,
          "internalType": "bool",
          "name": "purchased",
          "type": "bool"
        },
        {
          "indexed": false,
          "internalType": "uint256",
          "name": "timestamp",
          "type": "uint256"
        }
      ],
      "name": "madeitunavailable",
      "type": "event"
    },
    {
      "constant": true,
      "inputs": [],
      "name": "ArtworkCount",
      "outputs": [
        {
          "internalType": "uint256",
          "name": "",
          "type": "uint256"
        }
      ],
      "payable": false,
      "stateMutability": "view",
      "type": "function"
    },
    {
      "constant": true,
      "inputs": [],
      "name": "ArtworkCount1",
      "outputs": [
        {
          "internalType": "uint256",
          "name": "",
          "type": "uint256"
        }
      ],
      "payable": false,
      "stateMutability": "view",
      "type": "function"
    },
    {
      "constant": true,
      "inputs": [
        {
          "internalType": "uint256",
          "name": "",
          "type": "uint256"
        }
      ],
      "name": "Artworks",
      "outputs": [
        {
          "internalType": "uint256",
          "name": "id",
          "type": "uint256"
        },
        {
          "internalType": "string",
          "name": "Artistname",
          "type": "string"
        },
        {
          "internalType": "string",
          "name": "Artname",
          "type": "string"
        },
        {
          "internalType": "uint256",
          "name": "price",
          "type": "uint256"
        },
        {
          "internalType": "uint256",
          "name": "width",
          "type": "uint256"
        },
        {
          "internalType": "uint256",
          "name": "height",
          "type": "uint256"
        },
        {
          "internalType": "string",
          "name": "Description",
          "type": "string"
        },
        {
          "internalType": "address payable",
          "name": "owner",
          "type": "address"
        },
        {
          "internalType": "bool",
          "name": "purchased",
          "type": "bool"
        }
      ],
      "payable": false,
      "stateMutability": "view",
      "type": "function"
    },
    {
      "constant": true,
      "inputs": [
        {
          "internalType": "uint256",
          "name": "",
          "type": "uint256"
        }
      ],
      "name": "Artworks1",
      "outputs": [
        {
          "internalType": "uint256",
          "name": "id",
          "type": "uint256"
        },
        {
          "internalType": "string",
          "name": "Artname",
          "type": "string"
        },
        {
          "internalType": "uint256",
          "name": "price",
          "type": "uint256"
        },
        {
          "internalType": "uint256",
          "name": "StartingBlockNum",
          "type": "uint256"
        },
        {
          "internalType": "uint256",
          "name": "numBlocksActionOpen",
          "type": "uint256"
        },
        {
          "internalType": "address payable",
          "name": "highestBidder",
          "type": "address"
        },
        {
          "internalType": "uint256",
          "name": "highestBid",
          "type": "uint256"
        },
        {
          "internalType": "address payable",
          "name": "owner1",
          "type": "address"
        },
        {
          "internalType": "bool",
          "name": "ended",
          "type": "bool"
        }
      ],
      "payable": false,
      "stateMutability": "view",
      "type": "function"
    },
    {
      "constant": true,
      "inputs": [],
      "name": "name",
      "outputs": [
        {
          "internalType": "string",
          "name": "",
          "type": "string"
        }
      ],
      "payable": false,
      "stateMutability": "view",
      "type": "function"
    },
    {
      "constant": false,
      "inputs": [
        {
          "internalType": "string",
          "name": "_Artistname",
          "type": "string"
        },
        {
          "internalType": "string",
          "name": "_Artname",
          "type": "string"
        },
        {
          "internalType": "uint256",
          "name": "_price",
          "type": "uint256"
        },
        {
          "internalType": "uint256",
          "name": "_width",
          "type": "uint256"
        },
        {
          "internalType": "uint256",
          "name": "_height",
          "type": "uint256"
        },
        {
          "internalType": "string",
          "name": "_Description",
          "type": "string"
        }
      ],
      "name": "createArtwork",
      "outputs": [],
      "payable": false,
      "stateMutability": "nonpayable",
      "type": "function"
    },
    {
      "constant": false,
      "inputs": [
        {
          "internalType": "uint256",
          "name": "_id",
          "type": "uint256"
        }
      ],
      "name": "purchaseArtwork",
      "outputs": [],
      "payable": true,
      "stateMutability": "payable",
      "type": "function"
    },
    {
      "constant": false,
      "inputs": [
        {
          "internalType": "uint256",
          "name": "_id",
          "type": "uint256"
        }
      ],
      "name": "Sellit",
      "outputs": [],
      "payable": false,
      "stateMutability": "nonpayable",
      "type": "function"
    },
    {
      "constant": false,
      "inputs": [
        {
          "internalType": "uint256",
          "name": "_id",
          "type": "uint256"
        }
      ],
      "name": "DontSellit",
      "outputs": [],
      "payable": false,
      "stateMutability": "nonpayable",
      "type": "function"
    },
    {
      "constant": false,
      "inputs": [
        {
          "internalType": "string",
          "name": "_Artistname",
          "type": "string"
        },
        {
          "internalType": "uint256",
          "name": "_price",
          "type": "uint256"
        },
        {
          "internalType": "uint256",
          "name": "_numBlocksActionOpen",
          "type": "uint256"
        }
      ],
      "name": "createArtwork1",
      "outputs": [],
      "payable": false,
      "stateMutability": "nonpayable",
      "type": "function"
    },
    {
      "constant": false,
      "inputs": [
        {
          "internalType": "uint256",
          "name": "_id",
          "type": "uint256"
        }
      ],
      "name": "bid",
      "outputs": [],
      "payable": true,
      "stateMutability": "payable",
      "type": "function"
    },
    {
      "constant": false,
      "inputs": [
        {
          "internalType": "uint256",
          "name": "_id",
          "type": "uint256"
        }
      ],
      "name": "auctionEnd",
      "outputs": [],
      "payable": false,
      "stateMutability": "nonpayable",
      "type": "function"
    }
  ],
  "bytecode": "0x6080604052600060015560006002553480156200001b57600080fd5b506040518060400160405280601481526020017f417274207573696e6720426c6f636b636861696e000000000000000000000000815250600090805190602001906200006992919062000070565b506200011f565b828054600181600116156101000203166002900490600052602060002090601f016020900481019282601f10620000b357805160ff1916838001178555620000e4565b82800160010185558215620000e4579182015b82811115620000e3578251825591602001919060010190620000c6565b5b509050620000f39190620000f7565b5090565b6200011c91905b8082111562000118576000816000905550600101620000fe565b5090565b90565b612fb6806200012f6000396000f3fe6080604052600436106100a75760003560e01c8063454a2ab311610064578063454a2ab314610492578063657026df146104c0578063659052a8146104fb57806374912654146105365780639a3f184214610561578063e9ab552c14610775576100a7565b806306fdde03146100ac5780630e69daa61461013c5780631287fb92146101675780631e5521b71461019557806332246e9f1461037b5780633706fcd6146103b6575b600080fd5b3480156100b857600080fd5b506100c16108bd565b6040518080602001828103825283818151815260200191508051906020019080838360005b838110156101015780820151818401526020810190506100e6565b50505050905090810190601f16801561012e5780820380516001836020036101000a031916815260200191505b509250505060405180910390f35b34801561014857600080fd5b5061015161095b565b6040518082815260200191505060405180910390f35b6101936004803603602081101561017d57600080fd5b8101908080359060200190929190505050610961565b005b3480156101a157600080fd5b506101ce600480360360208110156101b857600080fd5b8101908080359060200190929190505050610fff565b604051808a81526020018060200180602001898152602001888152602001878152602001806020018673ffffffffffffffffffffffffffffffffffffffff1673ffffffffffffffffffffffffffffffffffffffff1681526020018515151515815260200184810384528c818151815260200191508051906020019080838360005b8381101561026a57808201518184015260208101905061024f565b50505050905090810190601f1680156102975780820380516001836020036101000a031916815260200191505b5084810383528b818151815260200191508051906020019080838360005b838110156102d05780820151818401526020810190506102b5565b50505050905090810190601f1680156102fd5780820380516001836020036101000a031916815260200191505b50848103825287818151815260200191508051906020019080838360005b8381101561033657808201518184015260208101905061031b565b50505050905090810190601f1680156103635780820380516001836020036101000a031916815260200191505b509c5050505050505050505050505060405180910390f35b34801561038757600080fd5b506103b46004803603602081101561039e57600080fd5b8101908080359060200190929190505050611242565b005b3480156103c257600080fd5b50610490600480360360608110156103d957600080fd5b81019080803590602001906401000000008111156103f657600080fd5b82018360208201111561040857600080fd5b8035906020019184600183028401116401000000008311171561042a57600080fd5b91908080601f016020809104026020016040519081016040528093929190818152602001838380828437600081840152601f19601f82011690508083019250505050505050919291929080359060200190929190803590602001909291905050506114cc565b005b6104be600480360360208110156104a857600080fd5b8101908080359060200190929190505050611694565b005b3480156104cc57600080fd5b506104f9600480360360208110156104e357600080fd5b8101908080359060200190929190505050611d67565b005b34801561050757600080fd5b506105346004803603602081101561051e57600080fd5b8101908080359060200190929190505050612341565b005b34801561054257600080fd5b5061054b612915565b6040518082815260200191505060405180910390f35b34801561056d57600080fd5b50610773600480360360c081101561058457600080fd5b81019080803590602001906401000000008111156105a157600080fd5b8201836020820111156105b357600080fd5b803590602001918460018302840111640100000000831117156105d557600080fd5b91908080601f016020809104026020016040519081016040528093929190818152602001838380828437600081840152601f19601f8201169050808301925050505050505091929192908035906020019064010000000081111561063857600080fd5b82018360208201111561064a57600080fd5b8035906020019184600183028401116401000000008311171561066c57600080fd5b91908080601f016020809104026020016040519081016040528093929190818152602001838380828437600081840152601f19601f820116905080830192505050505050509192919290803590602001909291908035906020019092919080359060200190929190803590602001906401000000008111156106ed57600080fd5b8201836020820111156106ff57600080fd5b8035906020019184600183028401116401000000008311171561072157600080fd5b91908080601f016020809104026020016040519081016040528093929190818152602001838380828437600081840152601f19601f82011690508083019250505050505050919291929050505061291b565b005b34801561078157600080fd5b506107ae6004803603602081101561079857600080fd5b8101908080359060200190929190505050612c93565b604051808a8152602001806020018981526020018881526020018781526020018673ffffffffffffffffffffffffffffffffffffffff1673ffffffffffffffffffffffffffffffffffffffff1681526020018581526020018473ffffffffffffffffffffffffffffffffffffffff1673ffffffffffffffffffffffffffffffffffffffff1681526020018315151515815260200182810382528a818151815260200191508051906020019080838360005b8381101561087a57808201518184015260208101905061085f565b50505050905090810190601f1680156108a75780820380516001836020036101000a031916815260200191505b509a505050505050505050505060405180910390f35b60008054600181600116156101000203166002900480601f0160208091040260200160405190810160405280929190818152602001828054600181600116156101000203166002900480156109535780601f1061092857610100808354040283529160200191610953565b820191906000526020600020905b81548152906001019060200180831161093657829003601f168201915b505050505081565b60025481565b610969612dc6565b600660008381526020019081526020016000206040518061012001604052908160008201548152602001600182018054600181600116156101000203166002900480601f016020809104026020016040519081016040528092919081815260200182805460018160011615610100020316600290048015610a2b5780601f10610a0057610100808354040283529160200191610a2b565b820191906000526020600020905b815481529060010190602001808311610a0e57829003601f168201915b50505050508152602001600282018054600181600116156101000203166002900480601f016020809104026020016040519081016040528092919081815260200182805460018160011615610100020316600290048015610acd5780601f10610aa257610100808354040283529160200191610acd565b820191906000526020600020905b815481529060010190602001808311610ab057829003601f168201915b50505050508152602001600382015481526020016004820154815260200160058201548152602001600682018054600181600116156101000203166002900480601f016020809104026020016040519081016040528092919081815260200182805460018160011615610100020316600290048015610b8d5780601f10610b6257610100808354040283529160200191610b8d565b820191906000526020600020905b815481529060010190602001808311610b7057829003601f168201915b505050505081526020016007820160009054906101000a900473ffffffffffffffffffffffffffffffffffffffff1673ffffffffffffffffffffffffffffffffffffffff1673ffffffffffffffffffffffffffffffffffffffff1681526020016007820160149054906101000a900460ff161515151581525050905060008160e0015190503373ffffffffffffffffffffffffffffffffffffffff168173ffffffffffffffffffffffffffffffffffffffff161415610c4b57600080fd5b60008260000151118015610c655750600154826000015111155b610c6e57600080fd5b81610100015115610c7e57600080fd5b8160600151341015610c8f57600080fd5b81610100015115610c9f57600080fd5b338260e0019073ffffffffffffffffffffffffffffffffffffffff16908173ffffffffffffffffffffffffffffffffffffffff16815250506001826101000190151590811515815250508160066000858152602001908152602001600020600082015181600001556020820151816001019080519060200190610d23929190612e2a565b506040820151816002019080519060200190610d40929190612e2a565b50606082015181600301556080820151816004015560a0820151816005015560c0820151816006019080519060200190610d7b929190612e2a565b5060e08201518160070160006101000a81548173ffffffffffffffffffffffffffffffffffffffff021916908373ffffffffffffffffffffffffffffffffffffffff1602179055506101008201518160070160146101000a81548160ff0219169083151502179055509050508073ffffffffffffffffffffffffffffffffffffffff166108fc349081150290604051600060405180830381858888f19350505050158015610e2d573d6000803e3d6000fd5b50600115153373ffffffffffffffffffffffffffffffffffffffff166001547f9ae05ebafa96ae6056e139d9ca480a9bdbdcf7772f47b9a390d9fefbfb105f3485602001518660400151876060015188608001518960a001518a60c00151426040518080602001806020018881526020018781526020018681526020018060200185815260200184810384528b818151815260200191508051906020019080838360005b83811015610eec578082015181840152602081019050610ed1565b50505050905090810190601f168015610f195780820380516001836020036101000a031916815260200191505b5084810383528a818151815260200191508051906020019080838360005b83811015610f52578082015181840152602081019050610f37565b50505050905090810190601f168015610f7f5780820380516001836020036101000a031916815260200191505b50848103825286818151815260200191508051906020019080838360005b83811015610fb8578082015181840152602081019050610f9d565b50505050905090810190601f168015610fe55780820380516001836020036101000a031916815260200191505b509a505050505050505050505060405180910390a4505050565b6006602052806000526040600020600091509050806000015490806001018054600181600116156101000203166002900480601f0160208091040260200160405190810160405280929190818152602001828054600181600116156101000203166002900480156110b15780601f10611086576101008083540402835291602001916110b1565b820191906000526020600020905b81548152906001019060200180831161109457829003601f168201915b505050505090806002018054600181600116156101000203166002900480601f01602080910402602001604051908101604052809291908181526020018280546001816001161561010002031660029004801561114f5780601f106111245761010080835404028352916020019161114f565b820191906000526020600020905b81548152906001019060200180831161113257829003601f168201915b505050505090806003015490806004015490806005015490806006018054600181600116156101000203166002900480601f0160208091040260200160405190810160405280929190818152602001828054600181600116156101000203166002900480156111ff5780601f106111d4576101008083540402835291602001916111ff565b820191906000526020600020905b8154815290600101906020018083116111e257829003601f168201915b5050505050908060070160009054906101000a900473ffffffffffffffffffffffffffffffffffffffff16908060070160149054906101000a900460ff16905089565b61124a612eaa565b600760008381526020019081526020016000206040518061012001604052908160008201548152602001600182018054600181600116156101000203166002900480601f01602080910402602001604051908101604052809291908181526020018280546001816001161561010002031660029004801561130c5780601f106112e15761010080835404028352916020019161130c565b820191906000526020600020905b8154815290600101906020018083116112ef57829003601f168201915b505050505081526020016002820154815260200160038201548152602001600482015481526020016005820160009054906101000a900473ffffffffffffffffffffffffffffffffffffffff1673ffffffffffffffffffffffffffffffffffffffff1673ffffffffffffffffffffffffffffffffffffffff168152602001600682015481526020016007820160009054906101000a900473ffffffffffffffffffffffffffffffffffffffff1673ffffffffffffffffffffffffffffffffffffffff1673ffffffffffffffffffffffffffffffffffffffff1681526020016007820160149054906101000a900460ff16151515158152505090508060e0015173ffffffffffffffffffffffffffffffffffffffff166108fc8260c001519081150290604051600060405180830381858888f19350505050158015611454573d6000803e3d6000fd5b507fdaec4582d5d9595688c8c98545fdd1c696d41c6aeaeb636737e84ed2f5c00eda8160a001518260c00151604051808373ffffffffffffffffffffffffffffffffffffffff1673ffffffffffffffffffffffffffffffffffffffff1681526020018281526020019250505060405180910390a15050565b60008351116114da57600080fd5b600082116114e757600080fd5b600081116114f457600080fd5b6002600081548092919060010191905055506040518061012001604052806002548152602001848152602001838152602001438152602001828152602001600073ffffffffffffffffffffffffffffffffffffffff168152602001600081526020013373ffffffffffffffffffffffffffffffffffffffff168152602001600015158152506007600060025481526020019081526020016000206000820151816000015560208201518160010190805190602001906115b4929190612e2a565b5060408201518160020155606082015181600301556080820151816004015560a08201518160050160006101000a81548173ffffffffffffffffffffffffffffffffffffffff021916908373ffffffffffffffffffffffffffffffffffffffff16021790555060c0820151816006015560e08201518160070160006101000a81548173ffffffffffffffffffffffffffffffffffffffff021916908373ffffffffffffffffffffffffffffffffffffffff1602179055506101008201518160070160146101000a81548160ff021916908315150217905550905050505050565b61169c612eaa565b600760008381526020019081526020016000206040518061012001604052908160008201548152602001600182018054600181600116156101000203166002900480601f01602080910402602001604051908101604052809291908181526020018280546001816001161561010002031660029004801561175e5780601f106117335761010080835404028352916020019161175e565b820191906000526020600020905b81548152906001019060200180831161174157829003601f168201915b505050505081526020016002820154815260200160038201548152602001600482015481526020016005820160009054906101000a900473ffffffffffffffffffffffffffffffffffffffff1673ffffffffffffffffffffffffffffffffffffffff1673ffffffffffffffffffffffffffffffffffffffff168152602001600682015481526020016007820160009054906101000a900473ffffffffffffffffffffffffffffffffffffffff1673ffffffffffffffffffffffffffffffffffffffff1673ffffffffffffffffffffffffffffffffffffffff1681526020016007820160149054906101000a900460ff161515151581525050905060008160e001519050816080015182606001510143111561187857600080fd5b8160c0015134116118d4576040517f08c379a0000000000000000000000000000000000000000000000000000000008152600401808060200182810382526038815260200180612f4a6038913960400191505060405180910390fd5b8073ffffffffffffffffffffffffffffffffffffffff163373ffffffffffffffffffffffffffffffffffffffff16141561190d57600080fd5b8161010001511561191d57600080fd5b8160c001516005819055508160a00151600360006101000a81548173ffffffffffffffffffffffffffffffffffffffff021916908373ffffffffffffffffffffffffffffffffffffffff160217905550338260a0019073ffffffffffffffffffffffffffffffffffffffff16908173ffffffffffffffffffffffffffffffffffffffff168152505033600460006101000a81548173ffffffffffffffffffffffffffffffffffffffff021916908373ffffffffffffffffffffffffffffffffffffffff160217905550348260c00181815250508160076000858152602001908152602001600020600082015181600001556020820151816001019080519060200190611a2a929190612e2a565b5060408201518160020155606082015181600301556080820151816004015560a08201518160050160006101000a81548173ffffffffffffffffffffffffffffffffffffffff021916908373ffffffffffffffffffffffffffffffffffffffff16021790555060c0820151816006015560e08201518160070160006101000a81548173ffffffffffffffffffffffffffffffffffffffff021916908373ffffffffffffffffffffffffffffffffffffffff1602179055506101008201518160070160146101000a81548160ff021916908315150217905550905050600360009054906101000a900473ffffffffffffffffffffffffffffffffffffffff1673ffffffffffffffffffffffffffffffffffffffff166108fc6005549081150290604051600060405180830381858888f19350505050158015611b6f573d6000803e3d6000fd5b507ff81c49e491651ed7d910f81b9cea2a25cfad118402677cc7b9b5eeac9bdd4cf633348460a001518560c00151604051808573ffffffffffffffffffffffffffffffffffffffff1673ffffffffffffffffffffffffffffffffffffffff1681526020018481526020018373ffffffffffffffffffffffffffffffffffffffff1673ffffffffffffffffffffffffffffffffffffffff16815260200182815260200194505050505060405180910390a18160800151826060015101431415611d62576001826101000190151590811515815250508160076000858152602001908152602001600020600082015181600001556020820151816001019080519060200190611c7d929190612e2a565b5060408201518160020155606082015181600301556080820151816004015560a08201518160050160006101000a81548173ffffffffffffffffffffffffffffffffffffffff021916908373ffffffffffffffffffffffffffffffffffffffff16021790555060c0820151816006015560e08201518160070160006101000a81548173ffffffffffffffffffffffffffffffffffffffff021916908373ffffffffffffffffffffffffffffffffffffffff1602179055506101008201518160070160146101000a81548160ff021916908315150217905550905050611d6183611242565b5b505050565b611d6f612dc6565b600660008381526020019081526020016000206040518061012001604052908160008201548152602001600182018054600181600116156101000203166002900480601f016020809104026020016040519081016040528092919081815260200182805460018160011615610100020316600290048015611e315780601f10611e0657610100808354040283529160200191611e31565b820191906000526020600020905b815481529060010190602001808311611e1457829003601f168201915b50505050508152602001600282018054600181600116156101000203166002900480601f016020809104026020016040519081016040528092919081815260200182805460018160011615610100020316600290048015611ed35780601f10611ea857610100808354040283529160200191611ed3565b820191906000526020600020905b815481529060010190602001808311611eb657829003601f168201915b50505050508152602001600382015481526020016004820154815260200160058201548152602001600682018054600181600116156101000203166002900480601f016020809104026020016040519081016040528092919081815260200182805460018160011615610100020316600290048015611f935780601f10611f6857610100808354040283529160200191611f93565b820191906000526020600020905b815481529060010190602001808311611f7657829003601f168201915b505050505081526020016007820160009054906101000a900473ffffffffffffffffffffffffffffffffffffffff1673ffffffffffffffffffffffffffffffffffffffff1673ffffffffffffffffffffffffffffffffffffffff1681526020016007820160149054906101000a900460ff16151515158152505090506001151581610100015115151461202557600080fd5b3373ffffffffffffffffffffffffffffffffffffffff168160e0015173ffffffffffffffffffffffffffffffffffffffff161461206157600080fd5b60008161010001901515908115158152505080600660008481526020019081526020016000206000820151816000015560208201518160010190805190602001906120ad929190612e2a565b5060408201518160020190805190602001906120ca929190612e2a565b50606082015181600301556080820151816004015560a0820151816005015560c0820151816006019080519060200190612105929190612e2a565b5060e08201518160070160006101000a81548173ffffffffffffffffffffffffffffffffffffffff021916908373ffffffffffffffffffffffffffffffffffffffff1602179055506101008201518160070160146101000a81548160ff021916908315150217905550905050600015153373ffffffffffffffffffffffffffffffffffffffff166001547f1f2a3fc3cb63aa5a3968f66fa19fdfe13e3cced2cea6285005249b50958380a584602001518560400151866060015187608001518860a001518960c00151426040518080602001806020018881526020018781526020018681526020018060200185815260200184810384528b818151815260200191508051906020019080838360005b8381101561222f578082015181840152602081019050612214565b50505050905090810190601f16801561225c5780820380516001836020036101000a031916815260200191505b5084810383528a818151815260200191508051906020019080838360005b8381101561229557808201518184015260208101905061227a565b50505050905090810190601f1680156122c25780820380516001836020036101000a031916815260200191505b50848103825286818151815260200191508051906020019080838360005b838110156122fb5780820151818401526020810190506122e0565b50505050905090810190601f1680156123285780820380516001836020036101000a031916815260200191505b509a505050505050505050505060405180910390a45050565b612349612dc6565b600660008381526020019081526020016000206040518061012001604052908160008201548152602001600182018054600181600116156101000203166002900480601f01602080910402602001604051908101604052809291908181526020018280546001816001161561010002031660029004801561240b5780601f106123e05761010080835404028352916020019161240b565b820191906000526020600020905b8154815290600101906020018083116123ee57829003601f168201915b50505050508152602001600282018054600181600116156101000203166002900480601f0160208091040260200160405190810160405280929190818152602001828054600181600116156101000203166002900480156124ad5780601f10612482576101008083540402835291602001916124ad565b820191906000526020600020905b81548152906001019060200180831161249057829003601f168201915b50505050508152602001600382015481526020016004820154815260200160058201548152602001600682018054600181600116156101000203166002900480601f01602080910402602001604051908101604052809291908181526020018280546001816001161561010002031660029004801561256d5780601f106125425761010080835404028352916020019161256d565b820191906000526020600020905b81548152906001019060200180831161255057829003601f168201915b505050505081526020016007820160009054906101000a900473ffffffffffffffffffffffffffffffffffffffff1673ffffffffffffffffffffffffffffffffffffffff1673ffffffffffffffffffffffffffffffffffffffff1681526020016007820160149054906101000a900460ff16151515158152505090503373ffffffffffffffffffffffffffffffffffffffff168160e0015173ffffffffffffffffffffffffffffffffffffffff161461262557600080fd5b8061010001511561263557600080fd5b6001816101000190151590811515815250508060066000848152602001908152602001600020600082015181600001556020820151816001019080519060200190612681929190612e2a565b50604082015181600201908051906020019061269e929190612e2a565b50606082015181600301556080820151816004015560a0820151816005015560c08201518160060190805190602001906126d9929190612e2a565b5060e08201518160070160006101000a81548173ffffffffffffffffffffffffffffffffffffffff021916908373ffffffffffffffffffffffffffffffffffffffff1602179055506101008201518160070160146101000a81548160ff021916908315150217905550905050600115153373ffffffffffffffffffffffffffffffffffffffff166001547fb2ea7a4fd41f9a81bde87f7586cbc7b750694202dd7b4d41983ef2ce42499fe384602001518560400151866060015187608001518860a001518960c00151426040518080602001806020018881526020018781526020018681526020018060200185815260200184810384528b818151815260200191508051906020019080838360005b838110156128035780820151818401526020810190506127e8565b50505050905090810190601f1680156128305780820380516001836020036101000a031916815260200191505b5084810383528a818151815260200191508051906020019080838360005b8381101561286957808201518184015260208101905061284e565b50505050905090810190601f1680156128965780820380516001836020036101000a031916815260200191505b50848103825286818151815260200191508051906020019080838360005b838110156128cf5780820151818401526020810190506128b4565b50505050905090810190601f1680156128fc5780820380516001836020036101000a031916815260200191505b509a505050505050505050505060405180910390a45050565b60015481565b600086511161292957600080fd5b600085511161293757600080fd5b6000841161294457600080fd5b6000831161295157600080fd5b6000821161295e57600080fd5b600081511161296c57600080fd5b60016000815480929190600101919050555060405180610120016040528060015481526020018781526020018681526020018581526020018481526020018381526020018281526020013373ffffffffffffffffffffffffffffffffffffffff16815260200160001515815250600660006001548152602001908152602001600020600082015181600001556020820151816001019080519060200190612a14929190612e2a565b506040820151816002019080519060200190612a31929190612e2a565b50606082015181600301556080820151816004015560a0820151816005015560c0820151816006019080519060200190612a6c929190612e2a565b5060e08201518160070160006101000a81548173ffffffffffffffffffffffffffffffffffffffff021916908373ffffffffffffffffffffffffffffffffffffffff1602179055506101008201518160070160146101000a81548160ff021916908315150217905550905050600015153373ffffffffffffffffffffffffffffffffffffffff166001547eba13a8c19ed1c3f65054606193b204e7f69bd37e0623357e2e532da88291f9898989898989426040518080602001806020018881526020018781526020018681526020018060200185815260200184810384528b818151815260200191508051906020019080838360005b83811015612b7d578082015181840152602081019050612b62565b50505050905090810190601f168015612baa5780820380516001836020036101000a031916815260200191505b5084810383528a818151815260200191508051906020019080838360005b83811015612be3578082015181840152602081019050612bc8565b50505050905090810190601f168015612c105780820380516001836020036101000a031916815260200191505b50848103825286818151815260200191508051906020019080838360005b83811015612c49578082015181840152602081019050612c2e565b50505050905090810190601f168015612c765780820380516001836020036101000a031916815260200191505b509a505050505050505050505060405180910390a4505050505050565b6007602052806000526040600020600091509050806000015490806001018054600181600116156101000203166002900480601f016020809104026020016040519081016040528092919081815260200182805460018160011615610100020316600290048015612d455780601f10612d1a57610100808354040283529160200191612d45565b820191906000526020600020905b815481529060010190602001808311612d2857829003601f168201915b5050505050908060020154908060030154908060040154908060050160009054906101000a900473ffffffffffffffffffffffffffffffffffffffff16908060060154908060070160009054906101000a900473ffffffffffffffffffffffffffffffffffffffff16908060070160149054906101000a900460ff16905089565b60405180610120016040528060008152602001606081526020016060815260200160008152602001600081526020016000815260200160608152602001600073ffffffffffffffffffffffffffffffffffffffff1681526020016000151581525090565b828054600181600116156101000203166002900490600052602060002090601f016020900481019282601f10612e6b57805160ff1916838001178555612e99565b82800160010185558215612e99579182015b82811115612e98578251825591602001919060010190612e7d565b5b509050612ea69190612f24565b5090565b6040518061012001604052806000815260200160608152602001600081526020016000815260200160008152602001600073ffffffffffffffffffffffffffffffffffffffff16815260200160008152602001600073ffffffffffffffffffffffffffffffffffffffff1681526020016000151581525090565b612f4691905b80821115612f42576000816000905550600101612f2a565b5090565b9056fe54686520676976656e20626f78206e756d626572206973206e6f742076616c696420706c6561736520656e7465722076616c696420626f78a265627a7a723158204075ffc63ef4ae00183779c5817ed43c483f9ca99d45468cd3dab9b7a396689864736f6c63430005100032",
  "source": "pragma solidity >=0.4.21 <0.7.0;\r\n\r\ncontract Artplace {\r\n    string public name;\r\n    uint public ArtworkCount = 0;\r\n    uint public ArtworkCount1 = 0;\r\n    address payable returnBidder;\r\n    address payable highestbidder;\r\n    uint returnBid;\r\n    mapping(uint => Artwork) public Artworks;\r\n    mapping(uint => ArtworkAuction) public Artworks1;\r\n\r\n    constructor() public {\r\n        name = \"Art using Blockchain\";\r\n    }\r\n    \r\n    struct Artwork {\r\n        uint id;\r\n        string Artistname;\r\n        string Artname;\r\n        uint price;\r\n        uint width;\r\n        uint height;\r\n        string Description;\r\n        address payable owner;\r\n        bool purchased;\r\n    }\r\n    struct ArtworkAuction {\r\n        uint id;\r\n        string Artname;\r\n        uint price;\r\n        uint  StartingBlockNum;\r\n        uint  numBlocksActionOpen;\r\n        address payable highestBidder;\r\n        uint  highestBid;\r\n        address payable owner1;\r\n        bool ended;\r\n    }\r\n    event Artworkcreated (\r\n        uint indexed id,\r\n        string Artistname,\r\n        string Artname,\r\n        uint  price,\r\n        uint  width,\r\n        uint  height,\r\n        string  Description,\r\n        address payable indexed owner,\r\n        bool indexed purchased,\r\n        uint timestamp\r\n    );\r\n    event ArtworkPurchased (\r\n        uint indexed id,\r\n        string Artistname,\r\n        string Artname,\r\n        uint  price,\r\n        uint  width,\r\n        uint  height,\r\n        string Description,\r\n        address payable indexed  owner,\r\n        bool indexed purchased,\r\n          uint timestamp\r\n    );\r\n    event madeitavailable (\r\n        uint indexed id,\r\n        string Artistname,\r\n        string Artname,\r\n        uint  price,\r\n        uint  width,\r\n        uint  height,\r\n        string Description,\r\n        address payable indexed  owner,\r\n        bool indexed purchased,\r\n          uint timestamp\r\n    );\r\n    event madeitunavailable (\r\n        uint indexed id,\r\n        string Artistname,\r\n        string Artname,\r\n        uint  price,\r\n        uint  width,\r\n        uint  height,\r\n        string Description,\r\n        address payable indexed  owner,\r\n        bool indexed purchased,\r\n          uint timestamp\r\n    );\r\n    event SomeoneBid(address bidder, uint amount,address highestBidder, uint highestBid);\r\n    event AuctionEnded(address winner, uint amount);\r\n\r\n    \r\n   \r\n\r\n    function createArtwork(string memory _Artistname,string memory _Artname, uint _price, uint _width,uint _height,string memory _Description) public {\r\n    // Require a valid Artist name\r\n    require(bytes(_Artistname).length > 0);\r\n    require(bytes(_Artname).length > 0);// Require a valid Art\r\n    require(_price > 0);// Require a valid price\r\n    require(_width > 0);// Require a valid width\r\n    require(_height > 0);// Require a valid height\r\n    require(bytes(_Description).length > 0);\r\n    ArtworkCount ++;//increase count\r\n    Artworks[ArtworkCount] = Artwork(ArtworkCount, _Artistname, _Artname,_price,_width,_height,_Description, msg.sender, false);\r\n    emit Artworkcreated(ArtworkCount, _Artistname, _Artname,_price,_width,_height,_Description, msg.sender, false,block.timestamp);// Trigger an event\r\n}\r\n\r\n\r\n    function purchaseArtwork(uint _id) public payable {\r\n        Artwork memory _artwork = Artworks[_id];//fetch the artwork\r\n        address payable _seller = _artwork.owner;//fetch the owner\r\n        require(_seller != msg.sender);//check seller does not buy the product\r\n        require(_artwork.id > 0 && _artwork.id <= ArtworkCount);//check for valid if\r\n        require(!_artwork.purchased);//check that artwork has not been purchased\r\n        require(msg.value >= _artwork.price);//chcek min balance\r\n        require(!_artwork.purchased);\r\n        _artwork.owner = msg.sender;\r\n        _artwork.purchased = true;\r\n        Artworks[_id] = _artwork;\r\n        address(_seller).transfer(msg.value);\r\n        emit ArtworkPurchased(ArtworkCount, _artwork.Artistname,_artwork.Artname, _artwork.price,_artwork.width,_artwork.height,_artwork.Description, msg.sender, true,block.timestamp);\r\n    }\r\n    function Sellit(uint _id) public  {\r\n        Artwork memory _artwork1 = Artworks[_id];//fetch the artwork\r\n         require((_artwork1.purchased)==true);\r\n         require(_artwork1.owner == msg.sender);\r\n        _artwork1.purchased = false;\r\n         Artworks[_id] = _artwork1;\r\n        emit madeitavailable(ArtworkCount, _artwork1.Artistname,_artwork1.Artname, _artwork1.price,_artwork1.width,_artwork1.height,_artwork1.Description, msg.sender, false,block.timestamp);\r\n    }\r\n    function DontSellit(uint _id) public  {\r\n        Artwork memory _artwork2 = Artworks[_id];//fetch the artwork\r\n        require(_artwork2.owner == msg.sender);\r\n        require(!_artwork2.purchased);//check that artwork has not been purchased\r\n        _artwork2.purchased = true;\r\n         Artworks[_id] = _artwork2;\r\n        emit madeitunavailable(ArtworkCount, _artwork2.Artistname,_artwork2.Artname, _artwork2.price,_artwork2.width,_artwork2.height,_artwork2.Description, msg.sender, true,block.timestamp);\r\n    }\r\n\r\n    //auction function\r\n    function createArtwork1(string memory _Artistname, uint _price,uint _numBlocksActionOpen) public {\r\n    // Require a valid Artist name\r\n    require(bytes(_Artistname).length > 0);\r\n    require(_price > 0);// Require a valid price\r\n     require(_numBlocksActionOpen > 0);// Require a valid price\r\n    ArtworkCount1 ++;//increase count\r\n    Artworks1[ArtworkCount1] = ArtworkAuction(ArtworkCount1, _Artistname,_price,block.number,_numBlocksActionOpen,0x0000000000000000000000000000000000000000,0,msg.sender,false);\r\n   // emit Artworkcreated(ArtworkCount, _Artistname, _Artname,_price,_width,_height,_Description, msg.sender, false);// Trigger an event\r\n    }\r\n    function bid(uint _id)  public payable {\r\n        \r\n    ArtworkAuction memory _artwork = Artworks1[_id];//fetch the artwork\r\n    address  _seller = _artwork.owner1;//fetch the owner\r\n    require (block.number <= (_artwork.StartingBlockNum + _artwork.numBlocksActionOpen));\r\n        require(msg.value > _artwork.highestBid,\"The given box number is not valid please enter valid box\");\r\n        require(msg.sender!=_seller);\r\n        require(!_artwork.ended);\r\n        returnBid = _artwork.highestBid;\r\n        returnBidder = _artwork.highestBidder;\r\n        _artwork.highestBidder = msg.sender;\r\n        highestbidder= msg.sender;\r\n        _artwork.highestBid = msg.value;\r\n        Artworks1[_id] = _artwork;\r\n        returnBidder.transfer(returnBid);\r\n        emit SomeoneBid(msg.sender, msg.value,_artwork.highestBidder,_artwork.highestBid);\r\n        if(block.number == (_artwork.StartingBlockNum + _artwork.numBlocksActionOpen)){\r\n             _artwork.ended = true;\r\n             Artworks1[_id] = _artwork;\r\n             auctionEnd(_id);\r\n        }\r\n    }\r\n    function auctionEnd(uint _id) public {\r\n    ArtworkAuction memory _artwork = Artworks1[_id];//fetch the artwork\r\n    _artwork.owner1.transfer(_artwork.highestBid);\r\n        emit AuctionEnded(_artwork.highestBidder, _artwork.highestBid);\r\n    }\r\n\r\n}",
  "sourcePath": "C:\\Users\\DAVE\\Desktop\\New folder (3)\\contracts\\Artplace.sol",
  "compiler": {
    "name": "solc",
    "version": "0.5.16+commit.9c3226ce.Emscripten.clang"
  },
  "schemaVersion": "3.0.23",
  "updatedAt": "2020-04-27T05:32:46.483Z",
  "networkType": "ethereum",
  "devdoc": {
    "methods": {}
  },
  "userdoc": {
    "methods": {}
  }
}