{
  "contractName": "Auction",
  "abi": [
    {
      "constant": true,
      "inputs": [],
      "name": "ArtworkCount",
      "outputs": [
        {
          "internalType": "uint256",
          "name": "",
          "type": "uint256"
        }
      ],
      "payable": false,
      "stateMutability": "view",
      "type": "function"
    },
    {
      "constant": true,
      "inputs": [
        {
          "internalType": "uint256",
          "name": "",
          "type": "uint256"
        }
      ],
      "name": "Artworks",
      "outputs": [
        {
          "internalType": "uint256",
          "name": "id",
          "type": "uint256"
        },
        {
          "internalType": "string",
          "name": "Artname",
          "type": "string"
        },
        {
          "internalType": "uint256",
          "name": "price",
          "type": "uint256"
        },
        {
          "internalType": "uint256",
          "name": "StartingBlockNum",
          "type": "uint256"
        },
        {
          "internalType": "uint256",
          "name": "numBlocksActionOpen",
          "type": "uint256"
        },
        {
          "internalType": "address",
          "name": "highestBidder",
          "type": "address"
        },
        {
          "internalType": "uint256",
          "name": "highestBid",
          "type": "uint256"
        },
        {
          "internalType": "address payable",
          "name": "owner",
          "type": "address"
        },
        {
          "internalType": "bool",
          "name": "ended",
          "type": "bool"
        }
      ],
      "payable": false,
      "stateMutability": "view",
      "type": "function"
    },
    {
      "constant": false,
      "inputs": [
        {
          "internalType": "string",
          "name": "_Artistname",
          "type": "string"
        },
        {
          "internalType": "uint256",
          "name": "_price",
          "type": "uint256"
        },
        {
          "internalType": "uint256",
          "name": "_StartingBlockNum",
          "type": "uint256"
        },
        {
          "internalType": "uint256",
          "name": "_numBlocksActionOpen",
          "type": "uint256"
        }
      ],
      "name": "createArtwork",
      "outputs": [],
      "payable": false,
      "stateMutability": "nonpayable",
      "type": "function"
    },
    {
      "constant": false,
      "inputs": [
        {
          "internalType": "uint256",
          "name": "_id",
          "type": "uint256"
        }
      ],
      "name": "bid",
      "outputs": [],
      "payable": true,
      "stateMutability": "payable",
      "type": "function"
    },
    {
      "constant": false,
      "inputs": [],
      "name": "withdraw",
      "outputs": [
        {
          "internalType": "bool",
          "name": "",
          "type": "bool"
        }
      ],
      "payable": false,
      "stateMutability": "nonpayable",
      "type": "function"
    },
    {
      "constant": false,
      "inputs": [
        {
          "internalType": "uint256",
          "name": "_id",
          "type": "uint256"
        }
      ],
      "name": "auctionEnd",
      "outputs": [],
      "payable": false,
      "stateMutability": "nonpayable",
      "type": "function"
    }
  ],
  "bytecode": "0x60806040526000805534801561001457600080fd5b50610f2f806100246000396000f3fe6080604052600436106100555760003560e01c80631e5521b71461005a57806332246e9f146101a25780633ccfd60b146101dd578063454a2ab31461020c578063749126541461023a578063f119262614610265575b600080fd5b34801561006657600080fd5b506100936004803603602081101561007d57600080fd5b810190808035906020019092919050505061034b565b604051808a8152602001806020018981526020018881526020018781526020018673ffffffffffffffffffffffffffffffffffffffff1673ffffffffffffffffffffffffffffffffffffffff1681526020018581526020018473ffffffffffffffffffffffffffffffffffffffff1673ffffffffffffffffffffffffffffffffffffffff1681526020018315151515815260200182810382528a818151815260200191508051906020019080838360005b8381101561015f578082015181840152602081019050610144565b50505050905090810190601f16801561018c5780820380516001836020036101000a031916815260200191505b509a505050505050505050505060405180910390f35b3480156101ae57600080fd5b506101db600480360360208110156101c557600080fd5b810190808035906020019092919050505061047e565b005b3480156101e957600080fd5b506101f2610719565b604051808215151515815260200191505060405180910390f35b6102386004803603602081101561022257600080fd5b810190808035906020019092919050505061083d565b005b34801561024657600080fd5b5061024f610bd6565b6040518082815260200191505060405180910390f35b34801561027157600080fd5b506103496004803603608081101561028857600080fd5b81019080803590602001906401000000008111156102a557600080fd5b8201836020820111156102b757600080fd5b803590602001918460018302840111640100000000831117156102d957600080fd5b91908080601f016020809104026020016040519081016040528093929190818152602001838380828437600081840152601f19601f820116905080830192505050505050509192919290803590602001909291908035906020019092919080359060200190929190505050610bdc565b005b6001602052806000526040600020600091509050806000015490806001018054600181600116156101000203166002900480601f0160208091040260200160405190810160405280929190818152602001828054600181600116156101000203166002900480156103fd5780601f106103d2576101008083540402835291602001916103fd565b820191906000526020600020905b8154815290600101906020018083116103e057829003601f168201915b5050505050908060020154908060030154908060040154908060050160009054906101000a900473ffffffffffffffffffffffffffffffffffffffff16908060060154908060070160009054906101000a900473ffffffffffffffffffffffffffffffffffffffff16908060070160149054906101000a900460ff16905089565b610486610da3565b600160008381526020019081526020016000206040518061012001604052908160008201548152602001600182018054600181600116156101000203166002900480601f0160208091040260200160405190810160405280929190818152602001828054600181600116156101000203166002900480156105485780601f1061051d57610100808354040283529160200191610548565b820191906000526020600020905b81548152906001019060200180831161052b57829003601f168201915b505050505081526020016002820154815260200160038201548152602001600482015481526020016005820160009054906101000a900473ffffffffffffffffffffffffffffffffffffffff1673ffffffffffffffffffffffffffffffffffffffff1673ffffffffffffffffffffffffffffffffffffffff168152602001600682015481526020016007820160009054906101000a900473ffffffffffffffffffffffffffffffffffffffff1673ffffffffffffffffffffffffffffffffffffffff1673ffffffffffffffffffffffffffffffffffffffff1681526020016007820160149054906101000a900460ff1615151515815250509050806080015181606001510143106106a4576040517f08c379a0000000000000000000000000000000000000000000000000000000008152600401808060200182810382526038815260200180610ec36038913960400191505060405180910390fd5b806101000151156106b457600080fd5b6001816101000190151590811515815250508060e0015173ffffffffffffffffffffffffffffffffffffffff166108fc8260c001519081150290604051600060405180830381858888f19350505050158015610714573d6000803e3d6000fd5b505050565b600080600260003373ffffffffffffffffffffffffffffffffffffffff1673ffffffffffffffffffffffffffffffffffffffff1681526020019081526020016000205490506000811115610834576000600260003373ffffffffffffffffffffffffffffffffffffffff1673ffffffffffffffffffffffffffffffffffffffff168152602001908152602001600020819055503373ffffffffffffffffffffffffffffffffffffffff166108fc829081150290604051600060405180830381858888f193505050506108335780600260003373ffffffffffffffffffffffffffffffffffffffff1673ffffffffffffffffffffffffffffffffffffffff16815260200190815260200160002081905550600091505061083a565b5b60019150505b90565b610845610da3565b600160008381526020019081526020016000206040518061012001604052908160008201548152602001600182018054600181600116156101000203166002900480601f0160208091040260200160405190810160405280929190818152602001828054600181600116156101000203166002900480156109075780601f106108dc57610100808354040283529160200191610907565b820191906000526020600020905b8154815290600101906020018083116108ea57829003601f168201915b505050505081526020016002820154815260200160038201548152602001600482015481526020016005820160009054906101000a900473ffffffffffffffffffffffffffffffffffffffff1673ffffffffffffffffffffffffffffffffffffffff1673ffffffffffffffffffffffffffffffffffffffff168152602001600682015481526020016007820160009054906101000a900473ffffffffffffffffffffffffffffffffffffffff1673ffffffffffffffffffffffffffffffffffffffff1673ffffffffffffffffffffffffffffffffffffffff1681526020016007820160149054906101000a900460ff161515151581525050905060008160e00151905081608001518260600151014310610a6c576040517f08c379a0000000000000000000000000000000000000000000000000000000008152600401808060200182810382526038815260200180610ec36038913960400191505060405180910390fd5b8160c001513411610ac8576040517f08c379a0000000000000000000000000000000000000000000000000000000008152600401808060200182810382526038815260200180610ec36038913960400191505060405180910390fd5b8073ffffffffffffffffffffffffffffffffffffffff163373ffffffffffffffffffffffffffffffffffffffff161415610b0157600080fd5b600073ffffffffffffffffffffffffffffffffffffffff168260a0015173ffffffffffffffffffffffffffffffffffffffff1614610b8f578160c00151600260008460a0015173ffffffffffffffffffffffffffffffffffffffff1673ffffffffffffffffffffffffffffffffffffffff168152602001908152602001600020600082825401925050819055505b338260a0019073ffffffffffffffffffffffffffffffffffffffff16908173ffffffffffffffffffffffffffffffffffffffff1681525050348260c0018181525050505050565b60005481565b6000845111610bea57600080fd5b60008311610bf757600080fd5b60008211610c0457600080fd5b60008081548092919060010191905055506040518061012001604052806000548152602001858152602001848152602001438152602001828152602001600073ffffffffffffffffffffffffffffffffffffffff168152602001600081526020013373ffffffffffffffffffffffffffffffffffffffff168152602001600015158152506001600080548152602001908152602001600020600082015181600001556020820151816001019080519060200190610cc2929190610e1d565b5060408201518160020155606082015181600301556080820151816004015560a08201518160050160006101000a81548173ffffffffffffffffffffffffffffffffffffffff021916908373ffffffffffffffffffffffffffffffffffffffff16021790555060c0820151816006015560e08201518160070160006101000a81548173ffffffffffffffffffffffffffffffffffffffff021916908373ffffffffffffffffffffffffffffffffffffffff1602179055506101008201518160070160146101000a81548160ff02191690831515021790555090505050505050565b6040518061012001604052806000815260200160608152602001600081526020016000815260200160008152602001600073ffffffffffffffffffffffffffffffffffffffff16815260200160008152602001600073ffffffffffffffffffffffffffffffffffffffff1681526020016000151581525090565b828054600181600116156101000203166002900490600052602060002090601f016020900481019282601f10610e5e57805160ff1916838001178555610e8c565b82800160010185558215610e8c579182015b82811115610e8b578251825591602001919060010190610e70565b5b509050610e999190610e9d565b5090565b610ebf91905b80821115610ebb576000816000905550600101610ea3565b5090565b9056fe54686520676976656e20626f78206e756d626572206973206e6f742076616c696420706c6561736520656e7465722076616c696420626f78a265627a7a7231582096840e16c90aa7c4eebe9ded0f448589c8d2bfba9af1effebf2b62664944f83b64736f6c63430005100032",
  "source": "pragma solidity >=0.4.21 <0.7.0;\r\n\r\ncontract Artplace {\r\n    string public name;\r\n    uint public ArtworkCount = 0;\r\n    mapping(uint => Artwork) public Artworks;\r\n\r\n    constructor() public {\r\n        name = \"Art using Blockchain\";\r\n    }\r\n\r\n    struct Artwork {\r\n        uint id;\r\n        string Artistname;\r\n        string Artname;\r\n        uint price;\r\n        uint width;\r\n        uint height;\r\n        string Description;\r\n        address payable owner;\r\n        bool purchased;\r\n    }\r\n    event Artworkcreated (\r\n        uint indexed id,\r\n        string Artistname,\r\n        string Artname,\r\n        uint  price,\r\n        uint  width,\r\n        uint  height,\r\n        string  Description,\r\n        address payable indexed owner,\r\n        bool indexed purchased\r\n    );\r\n    event ArtworkPurchased (\r\n        uint indexed id,\r\n        string Artistname,\r\n        string Artname,\r\n        uint  price,\r\n        uint  width,\r\n        uint  height,\r\n        string Description,\r\n        address payable indexed  owner,\r\n        bool indexed purchased\r\n    );\r\n    event madeitavailable (\r\n        uint indexed id,\r\n        string Artistname,\r\n        string Artname,\r\n        uint  price,\r\n        uint  width,\r\n        uint  height,\r\n        string Description,\r\n        address payable indexed  owner,\r\n        bool indexed purchased\r\n    );\r\n    event madeitunavailable (\r\n        uint indexed id,\r\n        string Artistname,\r\n        string Artname,\r\n        uint  price,\r\n        uint  width,\r\n        uint  height,\r\n        string Description,\r\n        address payable indexed  owner,\r\n        bool indexed purchased\r\n    );\r\n    function createArtwork(string memory _Artistname,string memory _Artname, uint _price, uint _width,uint _height,string memory _Description) public {\r\n    // Require a valid Artist name\r\n    require(bytes(_Artistname).length > 0);\r\n    require(bytes(_Artname).length > 0);// Require a valid Art\r\n    require(_price > 0);// Require a valid price\r\n    require(_width > 0);// Require a valid width\r\n    require(_height > 0);// Require a valid height\r\n    require(bytes(_Description).length > 0);\r\n    ArtworkCount ++;//increase count\r\n    Artworks[ArtworkCount] = Artwork(ArtworkCount, _Artistname, _Artname,_price,_width,_height,_Description, msg.sender, false);\r\n    emit Artworkcreated(ArtworkCount, _Artistname, _Artname,_price,_width,_height,_Description, msg.sender, false);// Trigger an event\r\n}\r\n\r\n    function purchaseArtwork(uint _id) public payable {\r\n        Artwork memory _artwork = Artworks[_id];//fetch the artwork\r\n        address payable _seller = _artwork.owner;//fetch the owner\r\n        require(_seller != msg.sender);//check seller does not buy the product\r\n        require(_artwork.id > 0 && _artwork.id <= ArtworkCount);//check for valid if\r\n        require(!_artwork.purchased);//check that artwork has not been purchased\r\n        require(msg.value >= _artwork.price);//chcek min balance\r\n        require(!_artwork.purchased);\r\n        _artwork.owner = msg.sender;\r\n        _artwork.purchased = true;\r\n        Artworks[_id] = _artwork;\r\n        address(_seller).transfer(msg.value);\r\n        emit ArtworkPurchased(ArtworkCount, _artwork.Artistname,_artwork.Artname, _artwork.price,_artwork.width,_artwork.height,_artwork.Description, msg.sender, true);\r\n    }\r\n    function Sellit(uint _id) public  {\r\n        Artwork memory _artwork1 = Artworks[_id];//fetch the artwork\r\n         require((_artwork1.purchased)==true);\r\n         require(_artwork1.owner == msg.sender);\r\n        _artwork1.purchased = false;\r\n         Artworks[_id] = _artwork1;\r\n        emit madeitavailable(ArtworkCount, _artwork1.Artistname,_artwork1.Artname, _artwork1.price,_artwork1.width,_artwork1.height,_artwork1.Description, msg.sender, false);\r\n    }\r\n    function DontSellit(uint _id) public  {\r\n        Artwork memory _artwork2 = Artworks[_id];//fetch the artwork\r\n        require(_artwork2.owner == msg.sender);\r\n        require(!_artwork2.purchased);//check that artwork has not been purchased\r\n        _artwork2.purchased = true;\r\n         Artworks[_id] = _artwork2;\r\n        emit madeitunavailable(ArtworkCount, _artwork2.Artistname,_artwork2.Artname, _artwork2.price,_artwork2.width,_artwork2.height,_artwork2.Description, msg.sender, true);\r\n    }\r\n    \r\n}\r\ncontract Auction {\r\n  \r\n  uint public ArtworkCount = 0;\r\n  mapping(uint => ArtworkAuction) public Artworks;\r\n  mapping(address => uint) pendingReturns;\r\n\r\n\r\n  bool ended;\r\n\r\n  \r\n\r\n\r\n    struct ArtworkAuction {\r\n        uint id;\r\n        string Artname;\r\n        uint price;\r\n        uint  StartingBlockNum;\r\n        uint  numBlocksActionOpen;\r\n        address highestBidder;\r\n        uint  highestBid;\r\n        address payable owner;\r\n        bool ended;\r\n    }\r\nfunction createArtwork(string memory _Artistname, uint _price, uint _StartingBlockNum,uint _numBlocksActionOpen) public {\r\n    // Require a valid Artist name\r\n    require(bytes(_Artistname).length > 0);\r\n    require(_price > 0);// Require a valid price\r\n     require(_StartingBlockNum > 0);// Require a valid price\r\n    ArtworkCount ++;//increase count\r\n    Artworks[ArtworkCount] = ArtworkAuction(ArtworkCount, _Artistname,_price,block.number,_numBlocksActionOpen,0x0000000000000000000000000000000000000000,0, msg.sender, false);\r\n    //emit Artworkcreated(ArtworkCount, _Artistname, _Artname,_price,_width,_height,_Description, msg.sender, false);// Trigger an event\r\n}\r\n\r\nfunction bid(uint _id) public payable {\r\n        \r\n    ArtworkAuction memory _artwork = Artworks[_id];//fetch the artwork\r\n    address payable _seller = _artwork.owner;//fetch the owner\r\n    require(block.number < (_artwork.StartingBlockNum + _artwork.numBlocksActionOpen),\"The given box number is not valid please enter valid box\");\r\n    require(msg.value > _artwork.highestBid,\"The given box number is not valid please enter valid box\");\r\n    require(msg.sender!=_seller);\r\n\r\n         if (_artwork.highestBidder != 0x0000000000000000000000000000000000000000) {\r\n      pendingReturns[_artwork.highestBidder] += _artwork.highestBid;\r\n    }\r\n          _artwork.highestBidder = msg.sender;\r\n    _artwork.highestBid = msg.value;\r\n       // emit HighestBidIncreased(msg.sender, msg.value);\r\n    }\r\n function withdraw() public returns (bool) {\r\n        uint amount = pendingReturns[msg.sender];\r\n        if (amount > 0) {\r\n           \r\n            pendingReturns[msg.sender] = 0;\r\n\r\n            if (!msg.sender.send(amount)) {\r\n                \r\n                pendingReturns[msg.sender] = amount;\r\n                return false;\r\n            }\r\n        }\r\n        return true;\r\n    }\r\n function auctionEnd(uint _id) public {\r\n         ArtworkAuction memory _artwork = Artworks[_id];//fetch the artwork\r\n   require(block.number < (_artwork.StartingBlockNum + _artwork.numBlocksActionOpen),\"The given box number is not valid please enter valid box\");\r\n   require(!_artwork.ended);//\r\n    _artwork.ended = true;\r\n       // emit AuctionEnded(_artwork.highestBidder, _artwork.highestBid);\r\n\r\n        // 3. Interaction\r\n        _artwork.owner.transfer(_artwork.highestBid);\r\n    }\r\n}\r\n  ",
  "sourcePath": "C:\\Users\\DAVE\\Desktop\\New folder (4)\\INFO-7500-Final-Project\\contracts\\Artplace.sol",
  "compiler": {
    "name": "solc",
    "version": "0.5.16+commit.9c3226ce.Emscripten.clang"
  },
  "schemaVersion": "3.0.23",
  "updatedAt": "2020-04-21T04:05:13.086Z",
  "devdoc": {
    "methods": {}
  },
  "userdoc": {
    "methods": {}
  }
}